:020000040800F2
:10000000F89F0020C5100008810200088302000844
:10001000870200088B0200088F0200080000000021
:100020000000000000000000000000009302000833
:1000300095020008000000009702000899020008DD
:10004000DF100008DF100008DF100008DF100008D4
:10005000DF100008DF100008DF100008DF100008C4
:10006000DF100008DF100008DF100008DF100008B4
:10007000DF100008DF100008DF100008DF100008A4
:10008000DF100008DF100008DF100008DF10000894
:10009000DF100008DF100008DF100008DF10000884
:1000A000DF100008DF100008DF100008DF10000874
:1000B000DF100008DF10000821360008DF100008FC
:1000C000DF100008DF100008DF100008DF10000854
:1000D000DF1000083B100008DF100008DF100008E8
:1000E000DF100008DF100008DF100008DF10000834
:1000F000DF100008DF100008DF100008DF10000824
:10010000DF100008DF100008DF100008DF10000813
:10011000DF100008DF100008190E0008DF100008CB
:10012000DF100008DF100008DF100008DF100008F3
:1001300000F002F800F06BF80AA090E8000C82448E
:100140008344AAF10107DA4501D100F060F8AFF26B
:10015000090EBAE80F0013F0010F18BFFB1A43F0A5
:1001600001031847E8870000088800000A444FF0A0
:10017000000C10F8013B13F0070408BF10F8014B06
:100180001D1108BF10F8015B641E05D010F8016B4B
:10019000641E01F8016BF9D113F0080F1EBF10F8AF
:1001A000014BAD1C0C1B09D16D1E58BF01F801CBD2
:1001B000FAD505E014F8016B01F8016B6D1EF9D555
:1001C0009142D6D37047000000230024002500266A
:1001D000103A28BF78C1FBD8520728BF30C148BFAA
:1001E0000B607047642907F0FF85752907F0FC85CF
:1001F000782907F03386632907F08787732907F08A
:100200008C87002070471FB51FBD10B510BD07F0CB
:10021000B7FF1146FFF7F7FF00F008F807F0D5FF2A
:1002200003B4FFF7F2FF03BC00F0ACFE4FF4A06094
:1002300001F0ECFC00F03CFE4FF4E13000F0B1FEC8
:1002400000F01CF902F0FBFD0EE04FF4FA7000F034
:100250006CFE0648006808B9012000E00020034950
:10026000086003A007F064FDEFE70000AC812142C5
:100270004C4544207374617475733A0D0A00000094
:10028000704700BFFEE700BFFEE700BFFEE700BF0C
:10029000FEE7704770477047704700000CB50020BC
:1002A000019000906C48006840F480306A49086012
:1002B00000BF6948006800F4003000900198401CBD
:1002C0000190009818B90198B0F5A06FF1D162487B
:1002D000006800F4003010B10120009001E000201F
:1002E00000900098012843D15C48006840F010005D
:1002F0005A4908600846006820F003000860084674
:10030000006840F002000860534840685249486065
:100310000846406848600846406840F4806048608D
:100320000846406820F47C1048600846406840F465
:10033000E81048600846006840F08070086000BF20
:100340004548006800F000700028F9D04248406835
:1003500020F00300404948600846406840F0020031
:10036000486000BF3C48406800F00C000828F9D104
:100370000CBD10B5FFF792FF10BD10B536480068F0
:1003800040F001003449086008464068344908409C
:100390003149486008460068324908402E490860E3
:1003A0000846006820F4802008600846406820F471
:1003B000FE0048604FF41F008860FFF7DAFF4FF03F
:1003C00000602949086010BD10B5002100200022FE
:1003D000214B5B6803F00C0121B1042906D00829E8
:1003E00028D107E0214B224C236027E01F4B204CF3
:1003F000236023E0184B5B6803F47010164B5B68B6
:1004000003F48032022303EB904022B9194B43439B
:10041000174C23600DE0104B5B6803F4003323B1ED
:10042000144B4343124C236003E0104B4343104CE6
:10043000236003E00D4B0E4C236000BF00BF064B52
:100440005B68C3F303130C4CE15C094B1B68CB40A6
:10045000074C236010BD0000001002400020024045
:100460000000FFF8FFFFF6FE08ED00E000127A0042
:100470000000002000093D000400002008B5012113
:10048000082001F05BF94FF4C050ADF800001020D7
:100490008DF8030003208DF802006946044800F03F
:1004A00091FE4FF4C051024800F039FF08BD000032
:1004B000000C014070B50546002405E0601CC4B284
:1004C000C82C01DD002070BD0221314801F05BFD28
:1004D0000028F3D029462E4801F002FD002405E053
:1004E000601CC4B2C82C01DD0020ECE701212848C3
:1004F00001F049FD0028F3D0254801F0F3FCC0B21B
:10050000E1E708B5012141F2040001F017F9E0200C
:10051000ADF8000018208DF8030003208DF80200CC
:1005200069461C4800F04EFEE0211A4800F0F7FE34
:100530000020194908804FF482704880002088808C
:100540000220C8800120088140024881382088812B
:100550000020C881072008820D4801F0EBFB012133
:100560000B4801F08CFCFF20FFF7A4FF08BD0849F1
:1005700009884FF6C7721140054A11801146098853
:10058000014311801146098841F0400111807047F4
:1005900000300140000801409003002010B5002405
:1005A0000020D04908609020FFF784FF0020FFF76B
:1005B00081FF0020FFF77EFF0020FFF77BFFFF2079
:1005C000FFF778FF44EA0024FF20FFF773FF04439E
:1005D0000120C549C1F88801204610BD08B5012198
:1005E000042001F0ABF81C20ADF8000010208DF8BD
:1005F000030003208DF802006946BC4800F0E2FDCC
:100600001C21BA4800F08BFEFFF77BFF0820FFF7A4
:10061000AEFFFFF7C3FFB649088008BD10B5002440
:100620000020B04908600520FFF744FFFF20FFF7D6
:1006300041FF04460120AC49C1F88801204610BDA5
:1006400010B504460020A74908600120FFF732FFDB
:100650002046FFF72FFF0120A349C1F8880110BDF4
:1006600010B500209F4908600620FFF723FF0120F6
:100670009D49C1F8880110BD10B500209949086056
:100680000420FFF717FF01209749C1F8880110BD2A
:100690002DE9F04106460C461746002091490860B6
:1006A0000320FFF707FFC4F30740FFF703FFC4F37E
:1006B0000720FFF7FFFEE0B2FFF7FCFE002505E094
:1006C000FF20FFF7F7FE7055681C85B2BD42F7DBCF
:1006D000012084490860BDE8F08110B500BFFFF734
:1006E0009DFF00F001000028F9D110BD2DE9F04177
:1006F00006460C461746FFF7B3FF0020794908600D
:100700000220FFF7D7FEC4F30740FFF7D3FEC4F380
:100710000720FFF7CFFEE0B2FFF7CCFE002504E094
:10072000705DFFF7C7FE681C85B2BD42F8DB012093
:100730006C490860FFF7D1FFBDE8F0812DE9F04179
:1007400007460E461446F0B2C0F58075AC4200DC98
:10075000254612E02A4631463846FFF7C7FFAC422D
:1007600000D10BE02F442E44601B84B2B4F5807F8F
:1007700002DD4FF4807500E02546EBE700BFBDE8E1
:10078000F08110B504462403FFF76AFFFFF7A5FFC9
:100790000020544908602020FFF78CFEC4F3074076
:1007A000FFF788FEC4F30720FFF784FEE0B2FFF7EF
:1007B00081FE01204C49C1F88801FFF78EFF10BD72
:1007C0002DE9F05F8346884616464FF4805002F0CC
:1007D000C5FB8246BAF1000F01D1BDE8F09F4FEA98
:1007E0001837C8F30B09C9F58054A64200DC34461B
:1007F00041E039034FF480525046FFF749FF00258E
:1008000008E009EB05001AF80000FF2800D003E01B
:10081000681C85B2A542F4DB00BFA54215DA384654
:10082000FFF7AFFF002507E01BF8050005EB090106
:100830000AF80100681C85B2A542F5DB39034FF4C4
:1008400080525046FFF77AFF04E022464146584660
:10085000FFF774FFA64200D10EE07F1C4FF00009A5
:10086000A344A044301B86B2B6F5805F02DD4FF48E
:10087000805400E03446BCE700BF504602F062FB03
:1008800000BFAAE710B5FFF7EBFEFFF726FF002039
:1008900014490860C720FFF70DFE01201249C1F876
:1008A0008801FFF71AFF10BD10B500200D49086040
:1008B000B920FFF7FFFD01200B49C1F88801032093
:1008C00000F00FFB10BD10B5002006490860AB20FA
:1008D000FFF7F0FD01200449C1F88801032000F072
:1008E00000FB10BD880121420000214200080140A8
:1008F0001400002010B504462046FFF7DBFD10BDB4
:1009000010B53820FFF733FE10BD10B50020FFF7FB
:100910002EFE10BD08B50121042000F00FFF1C20A1
:10092000ADF8000010208DF8030003208DF80200C0
:100930006946F64800F046FC1C21F44800F0EFFC44
:10094000FFF7DFFD0120F249086008BD10B5012066
:10095000EF490860FF20FFF7CDFF10BD10B5002460
:1009600000BFFF20FFF7C6FFFF2801D1002010BD08
:10097000641C6FF07F408442F3D30120F7E710B589
:100980000020E3490860FFF7E9FF08B9002010BD27
:10099000FFF7DCFF0120FAE770B505464FF6FF745C
:1009A00001E0601E84B2FF20FFF7A4FFA84201D03F
:1009B000002CF6D10CB9FF2070BD0020FCE770B50B
:1009C00004460D46FE20FFF7E7FF08B1012070BD89
:1009D00004E0FF20FFF76EFD2070641C2800A5F1E5
:1009E00001018DB2F5D1FF20FFF784FFFF20FFF753
:1009F00081FF0020EBE770B506460D46FFF7AEFF1E
:100A000008B1012070BD2846FFF774FFFD2D19D0F5
:100A1000002404E0305DFFF74DFD601C84B2B4F5A6
:100A2000007FF7DBFF20FFF765FFFF20FFF762FF86
:100A3000FF20FFF75FFF044604F01F00052801D0E8
:100A40000220DFE70020DDE72DE9F04105460C46F6
:100A500017464FF00008FFF779FFFFF790FF10B13E
:100A6000FF20BDE8F08145F04000FFF743FF200E76
:100A7000FFF740FFC4F30740FFF73CFFC4F3072034
:100A8000FFF738FFE0B2FFF735FF3846FFF732FFD8
:100A90000C2D02D1FF20FFF72DFF4FF01F0800BFE4
:100AA000FF20FFF727FF064606F0800030B15FEA1F
:100AB0000800A8F1010101F0FF08F1D13046D0E7AC
:100AC00070B50546012200210A20FFF7BDFF04464C
:100AD00024B910212846FFF772FF0446FFF736FFBE
:100AE0000CB1012070BD0020FCE770B50546012265
:100AF00000210920FFF7A8FF044624B91021284649
:100B0000FFF75DFF0446FFF721FF0CB1012070BD28
:100B10000020FCE77FB56846FFF7E7FF10B1002033
:100B200004B070BD9DF8000000F0C000402809D15D
:100B30009DF809009DF8081000EB0120401C84B2CC
:100B4000A50220E09DF8050000F00F009DF80A10B6
:100B500000EBD1109DF8091001F0030100EB4100FA
:100B6000861C9DF8080080119DF8071000EB81009D
:100B70009DF8061001F0030100EB8120441CA6F152
:100B8000090004FA00F52846CAE7F8B5FFF7C2FEE7
:100B9000FFF7B6FE002504E0FF20FFF7ABFE681C60
:100BA00085B20A2DF8DB142600BF952200210846E5
:100BB000FFF74AFF0446012C04D03000A6F10101E2
:100BC0008EB2F2D1002053490870012C4AD18722FD
:100BD0004FF4D5710820FFF737FF012847D10025D2
:100BE00006E0FF20FFF786FE0DF80500681C85B2C1
:100BF000042DF6DB9DF80200012879D19DF8030051
:100C0000AA2875D14FF6FE7600BF012200213720B9
:100C1000FFF71AFF012291072920FFF715FF04466D
:100C200024B13000A6F101018EB2EED1002E5FD0CA
:100C3000012200213A20FFF707FF002858D10025A4
:100C400006E0FF20FFF756FE0DF80500681C85B290
:100C5000042DF6DB9DF8000000F0400018B10620DE
:100C60002C49087044E004202A49087040E0012221
:100C700000213720FFF7E8FE012200212920FFF79D
:100C8000E3FE0446012C17DC0220224908704FF6CF
:100C9000FE7600BF012200213720FFF7D5FE01229A
:100CA00000212920FFF7D0FE0446BCB13000A6F198
:100CB00001018EB2EED111E00120164908704FF605
:100CC000FE7600BF012200211046FFF7BDFE04465C
:100CD00024B13000A6F101018EB2F3D12EB1012270
:100CE00051021020FFF7B0FE10B100200949087032
:100CF000FFF72CFEFFF709FE0648007808B1002038
:100D0000F8BD0CB12046FBE7AA20F9E70008014036
:100D10008C012142160000202DE9F04106460F46C5
:100D200015463C480078062800D07F02012D0CD1E2
:100D3000012239461120FFF787FE0446FCB96902FB
:100D40003046FFF73CFE044619E0012239461220E6
:100D5000FFF77AFE044600BF4FF400713046FFF7FC
:100D60002EFE044606F50076681EC0B2050001D0CE
:100D7000002CF1D0012200210C20FFF765FEFFF7C7
:100D8000E5FD2046BDE8F0812DE9F04106460F461D
:100D9000154620480078062800D07F02012D0CD18E
:100DA000012239461820FFF74FFE04466CBBFE2196
:100DB0003046FFF720FE044627E016480078012859
:100DC00009D0012200213720FFF73EFE01222946EB
:100DD0001720FFF739FE012239461920FFF734FEAC
:100DE000044694B900BFFC213046FFF704FE0446D8
:100DF00006F50076681EC0B2050001D0002CF2D0C6
:100E0000FD210020FFF7F7FD0446FFF79FFD204678
:100E1000BDE8F0811600002010B501211E4801F048
:100E2000E2FF38B11D4801781DA006F081FF0020C7
:100E30001A4908700121184801F0E6FF10BD7FB57E
:100E400005460C460121102000F085FCADF8085045
:100E5000ADF804400020ADF80A00ADF8060001A985
:100E60000D4801F09BF9012241210B4801F00DFDD5
:100E70000121094801F0EEFC36208DF80000012028
:100E80008DF8010003208DF8020001208DF8030089
:100E9000684600F0C0FE7FBD001000401700002033
:100EA0006672616D653A25646670730D0A00000014
:100EB00010B56FF0040000F0F8FE2E4800682E49CF
:100EC000B0FBF1F02D4908700846007800EB4001B6
:100ED000C1EBC0104FF6FF7101EAC000284908803D
:100EE00010BD0146254A12784A434FF0E0235A616B
:100EF00000229A611A46126942F001021A6100BF8B
:100F00004FF0E022106900F001021AB100F48032C3
:100F1000002AF5D04FF0E022126922F001024FF0D2
:100F2000E0231A6100229A6170470146144A128830
:100F30004A434FF0E0235A6100229A611A4612692F
:100F400042F001021A6100BF4FF0E022106900F088
:100F500001021AB100F48032002AF5D04FF0E022ED
:100F6000126922F001024FF0E0231A6100229A6117
:100F7000704700000000002000127A0018000020D6
:100F80001A000020014600BF704700BF494A12887E
:100F900002F04002002AF9D0C2B2464B1B1D1A8053
:100FA000704710B586B00446012144F2040000F0F9
:100FB000C5FB4FF40070ADF8140003208DF8160047
:100FC00018208DF8170005A93B4800F0FBF84FF4F6
:100FD0008060ADF8140004208DF8170005A936488C
:100FE00000F0F0F825208DF8000003208DF80100B6
:100FF0008DF8020001208DF80300684600F00BFE1A
:1010000001940020ADF80800ADF80A00ADF80C001E
:10101000ADF810000C20ADF80E0001A9254800F035
:1010200034FC012240F22551224800F0C6FC012187
:10103000204800F0B6FC06B010BD10B540F22551B6
:101040001C4800F09FFD10B31A4800F01BFDC4B20D
:101050001A48008800F40040C8B91848008800F415
:10106000804060B10A2C03D000201449088020E0A1
:101070001248008840F400401049088019E00D2C07
:1010800006D10E48008840F480400C49088010E0EA
:101090000A480088C0F30D0009490C54074800882D
:1010A000401C0649088008460088C72801DD00204A
:1010B000088010BD003801400008014020000020D9
:1010C000A20300200948804709480047FEE7FEE7E1
:1010D000FEE7FEE7FEE7FEE7FEE7FEE7FEE7FEE7E8
:1010E00004480549054A064B704700007B03000889
:1010F00031010008F8990020F89F0020F89B00209B
:10110000F89B002010B50446CC48844208D1012148
:10111000042000F02DFB0021042000F029FB46E014
:10112000C748844208D10121082000F021FB00219A
:10113000082000F01DFB3AE0C248844208D101219A
:10114000102000F015FB0021102000F011FB2EE014
:10115000BD48844208D10121202000F009FB002174
:10116000202000F005FB22E0B848844208D101218C
:10117000402000F0FDFA0021402000F0F9FA16E0CE
:10118000B348844208D10121802000F0F1FA002107
:10119000802000F0EDFA0AE0AE48844207D1012138
:1011A000801500F0E5FA0021A01500F0E1FA10BD6D
:1011B00010B50121084600F0DBFA0021012000F003
:1011C000D7FA10BD2DE9F041024600250026002087
:1011D00000230024002791F803C00CF00F0591F8BC
:1011E00003C00CF0100CBCF1000F03D091F802C04A
:1011F0004CEA050591F800C0BCF1000F31D014682D
:1012000000202BE04FF0010C0CFA00F3B1F800C005
:101210000CEA03069E4220D183004FF00F0C0CFA1B
:1012200003F7BC4305FA03FC4CEA040491F803C03D
:10123000BCF1280F06D14FF0010C0CFA00FCC2F8EB
:1012400014C00AE091F803C0BCF1480F05D14FF07B
:10125000010C0CFA00FCC2F810C0401C0828D1D3C5
:101260001460B1F800C0BCF1FF0F34DD54680020F9
:101270002EE000F1080C4FF0010808FA0CF3B1F869
:1012800000C00CEA03069E4221D183004FF00F0CF0
:101290000CFA03F7BC4305FA03FC4CEA040491F88A
:1012A00003C0BCF1280F05D100F1080C08FA0CF8B6
:1012B000C2F8148091F803C0BCF1480F07D100F1C7
:1012C000080C4FF0010808FA0CF8C2F81080401C16
:1012D0000828CED35460BDE8F0814FF6FF7101803D
:1012E000022181700421C17070470246002093687A
:1012F0000B400BB1012000E00020704701468868D8
:1013000080B2704702460020D3680B400BB1012029
:1013100000E0002070470146C86880B27047016154
:101320007047416170470AB1016100E04161704757
:10133000C16070474FF480320A43826181618261EB
:1013400082698269704702460020434B18684FF655
:101350008073184040EA021008433F4B1860704702
:101360003E49C8617047F0B50A46002300240021B9
:10137000002500F00046B6F1004F02D1364EF1696B
:1013800001E0354E7168C0F3034583B200F44016A6
:10139000B6F5401F08D121F070612F4E766826F017
:1013A00070662D4F7E6012E000F48016B6F5801F47
:1013B00006D1032606FA05F4A14341F0706106E068
:1013C000460D360103FA06F6B14341F0706122B1D1
:1013D000460D360103FA06F6314300F00046B6F139
:1013E000004F02D11C4EF16101E01B4E7160F0BD57
:1013F00030B500228B071C0F0F2303FA04F2164BA3
:1014000008338C1053F824309343134C08348D1058
:1014100044F8253023468C1053F824308C07240FD1
:1014200000FA04F423430C4C08348D1044F82530A2
:1014300030BD0A49DC3108607047000000080140F7
:10144000000C014000100140001401400018014050
:10145000001C01400020014000000140000020422B
:10146000DF48006840F00100DD4908600846406838
:10147000DC490840DA49486008460068DA49084013
:10148000D74908600846006820F4802008600846B4
:10149000406820F4FE0048604FF41F0088607047E9
:1014A000CF49096821F48031CD4A1160114609689D
:1014B00021F480211160B0F5803F03D0B0F5802F7A
:1014C0000ED106E0C649096841F48031C44A116072
:1014D00007E0C349096841F4A021C14A116000E056
:1014E00000BF00BF704710B5014600220023002056
:1014F0004A11012A02D1BA4C236806E0022A02D11D
:10150000B74C236A01E0B64C636A01F01F02012464
:1015100094401C400CB1012000E0002010BD38B503
:10152000002000900024002500BF3120FFF7DBFFE2
:1015300005460098401C00900098B0F5A06F01D0BF
:10154000002DF2D03120FFF7CEFF08B1012400E0DA
:101550000024204638BD01460020A14A106820F032
:10156000F80040EAC10010607047A0490860704769
:10157000024600209A4B586820F47C1042EA01038E
:101580001843974B58607047984908667047014662
:101590000020934A506820F00300084350607047D1
:1015A0008F48406800F00C007047014600208C4ACC
:1015B000506820F0F000084350607047014600205A
:1015C000874A506820F4E060084350607047014645
:1015D0000020834A506820F4605040EAC100506007
:1015E000704729B17E4A527A02437D4B5A7204E019
:1015F0007B4A527A82437A4B5A7270477B49D83180
:101600000860704701460020754A506820F4404049
:101610000843506070470021714A20321170704AAF
:1016200082F82010012802D004280AD104E0012108
:101630006B4A2032117005E00521694A2032117091
:1016400000E000BF00BF7047694908607047644907
:10165000096A0143624A116270476549443908606A
:10166000704730B500210022002400235C4D6D68D6
:1016700005F00C0121B1042905D0082923D105E08A
:101680005C4D056022E05B4D05601FE0544D6D68C8
:1016900005F47012524D6D6805F48034022505EB97
:1016A00092421CB9544D554305600BE04C4D6D689A
:1016B00005F400351DB1504D5543056002E04D4D18
:1016C0005543056002E04B4D056000BF00BF444D2F
:1016D0006D6805F0F0010909484D6B5C0568DD4057
:1016E00045603F4D6D6805F4E061090A434D6B5C50
:1016F0004568DD4085603A4D6D6805F46051C90A62
:101700003E4D6B5C4568DD40C560354D6D6805F448
:101710004041890B3A4D6B5CC568B5FBF3F505613B
:1017200030BD29B12E4A526902432D4B5A6104E063
:101730002B4A526982432A4B5A61704729B1284A81
:1017400092690243264B9A6104E0254A92698243DA
:10175000234B9A61704729B1214AD2690243204B39
:10176000DA6104E01E4AD26982431D4BDA61704798
:1017700029B11B4AD2680243194BDA6004E0184AC7
:10178000D2688243164BDA60704729B1144A126955
:101790000243134B1A6104E0114A12698243104B51
:1017A0001A61704712494039086070470F49C86490
:1017B00070470B49C87170470948406A40F0807013
:1017C00007494862704701460020054A92680A406E
:1017D0000AB1012000E0002070470149887270477B
:1017E000001002400000FFF8FFFFF6FE000042423A
:1017F0008004424200127A0000093D0022000020CD
:101800003200002010B50446FB48844209D1012172
:101810008803FFF7ADFF00214FF48040FFF7A8FFDA
:1018200032E0F648844209D101214804FFF7ADFFB8
:1018300000214FF40030FFF7A8FF25E0F048844274
:1018400009D101218804FFF7A0FF00214FF4802077
:10185000FFF79BFF18E0EB48844209D10121C8043F
:10186000FFF793FF00214FF40020FFF78EFF0BE0FE
:10187000E548844208D101210805FFF786FF0021D1
:101880004FF48010FFF781FF10BD2DE9F04786B0BF
:1018900005460E460024A24600BFA1460027B08997
:1018A00000B100BF2F462C8A4CF6FF700440F08830
:1018B00004432C82AC894EF6F3100440B088318981
:1018C0000843718908430443AC81AC8A4FF6FF405A
:1018D0000440B0890443AC8201A8FFF7C2FEC648A9
:1018E000874202D1DDF810A001E0DDF80CA0A88944
:1018F00000F4004040B10AEBCA0000EB0A10316866
:101900004900B0FBF1F807E00AEBCA0000EB0A104F
:1019100031688900B0FBF1F86420B8FBF0F00401F5
:101920002009642101FB1089A88900F4004040B11E
:10193000322000EBC900B0FBF1F000F007000443D7
:1019400008E0322000EB09106421B0FBF1F000F058
:101950000F0004432C8106B0BDE8F0874FF4165108
:10196000016000218180C18001810C214181002121
:101970008181704710B502460020108A4FF2FF03A4
:1019800018400B884C8823438C882343CC882343FE
:101990001843108210BD0021018041808180C180E8
:1019A000704721B1828942F40052828104E0828929
:1019B0004DF6FF731A4082817047F0B5034600244C
:1019C00000260025002040F66A17B94200D100BF6A
:1019D0001846C1F3421401F01F06012707FA06F565
:1019E000012C01D10C3004E0022C01D1103000E0B8
:1019F00014301AB107682F43076002E00768AF434D
:101A00000760F0BD1AB1838A0B43838202E0838AA8
:101A10008B4383827047028A4FF6F0731A4002822A
:101A2000028A0A430282704782894FF2FF731A408A
:101A3000828182890A438281704721B1828942F082
:101A40000202828104E082894FF6FD731A4082818E
:101A50007047028A4FF6DF731A400282028A0A43F5
:101A60000282704721B1028A42F48042028204E07D
:101A7000028A4BF6FF731A4002827047C1F30802D4
:101A80008280704701468888C0F3080070478189CA
:101A900041F0010181817047028BD2B20283028B37
:101AA00042EA012202837047028B02F47F420283E2
:101AB000028B0A430283704721B1828A42F02002DE
:101AC000828204E0828A4FF6DF731A408282704776
:101AD00021B1828A42F01002828204E0828A4FF6AB
:101AE000EF731A408282704721B1828A42F0080265
:101AF000828204E0828A4FF6F7731A40828270472E
:101B000021B1828942F40042828103E08289C2F3DA
:101B10000E028281704721B1828A42F40062828281
:101B200004E0828A4FF2FF731A4082827047828AF1
:101B30004FF6FB731A408282828A0A438282704780
:101B400021B1828A42F00202828204E0828A4FF648
:101B5000FD731A408282704702460020B1F5007F73
:101B600000D100BF13880B400BB1012000E0002022
:101B7000704701F40072B2F5007F00D100BFCA4384
:101B80000280704770B50246002400230025002023
:101B900040F66A16B14200D100BFC1F3421501F010
:101BA0001F03012606FA03F3012D02D19689334063
:101BB00006E0022D02D1168A334001E0968A3340B6
:101BC0000C12012606FA04F41688344013B10CB145
:101BD000012000E0002070BD10B50022002340F677
:101BE0006A14A14200D100BF0A1201249440A3B29A
:101BF000DC43048010BD0000003801400044004078
:101C000000480040004C0040005000403149014372
:101C1000314A1160704770B5002100230F22C4784B
:101C200004B32D4C246804F4E064C4F5E064210A94
:101C3000C1F10403CA40447804FA03F184781440E3
:101C400021430901254C0678A155047804F01F05AD
:101C50000124AC4005786D11AD0005F1E025C5F813
:101C6000004109E0047804F01F050124AC401C4D3C
:101C70000678761145F8264070BD1A4A0A4002439C
:101C8000154B1B1F1A60704739B1134A121D126899
:101C90000243114B1B1D1A6006E00F4A121D126809
:101CA00082430D4B1B1D1A607047042808D14FF06A
:101CB000E021096941F004014FF0E022116107E0E1
:101CC0004FF0E021096921F004014FF0E022116199
:101CD000704700000000FA050CED00E000E400E0B1
:101CE00080E100E080FFFF1F10B50446BE4884423B
:101CF00008D101218014FFF73BFD0021A014FFF75C
:101D000037FD16E0B948844208D101210014FFF7DD
:101D10003CFD00212014FFF738FD0AE0B44884425E
:101D200007D10121C013FFF730FD0021E013FFF7B9
:101D30002CFD10BD10B50022028802F441520B8820
:101D40004C8823438C882343CC8823430C8923432A
:101D50004C8923438C892343CC8923431A43028033
:101D6000838B4FF2FF74234083830B8A038210BD61
:101D70002DE9F04F85B005460C464FF000090227CB
:101D80004FF000084FF0010B0026B246A88B4FF22F
:101D900040010840A88302202884B5F81C90A06860
:101DA000022801D100BF38E0A08810B94FF0010B24
:101DB00001E04FF0020B8D48854200D100E000BFEA
:101DC0006846FFF74EFCDDF800A0E088B0F5007F24
:101DD0000AD14FEA1A2000EB80004000A168B0FB56
:101DE000F1F0401D86B20BE04FEA4B10BAFBF0F069
:101DF00000EB80004000A168B0FBF1F0401D86B20E
:101E00000A20B6FBF0F606F00108A6EB0800C0F3C6
:101E10004F074FF6FF7000EA0828022F01DBFF2F63
:101E200002DD02274FF00008E08840EA080038434E
:101E30002884A088A1890843618808432188084331
:101E400040F4006040EA0909A5F81C9005B0BDE81F
:101E5000F08F0021018041808180C180018141811A
:101E60008181C18107210182704700210180418069
:101E70008180C1800221816000218181704721B170
:101E8000028842F04002028004E002884FF6BF73ED
:101E90001A400280704721B1828B42F480628283B3
:101EA00004E0828B4FF6FF331A408283704730B5CF
:101EB000002400230C110125A540ABB21AB185887E
:101EC0001D43858002E085889D43858030BD1AB121
:101ED00083880B43838002E083888B438380704731
:101EE000818170470146888970474FF6FF629142B1
:101EF00004D0028842F48072028004E002884FF627
:101F0000FF631A400280704721B1828842F00402C8
:101F1000828004E082884FF6FB731A40828070470B
:101F200002884FF2FF731A40028002880A4302803F
:101F30007047018841F480510180704721B10288C7
:101F400042F40052028004E002884DF6FF731A400A
:101F50000280704702460020012901D0108B00E06A
:101F6000908A70470146088A7047B1F5804F04D1C6
:101F7000028842F48042028004E002884BF6FF733C
:101F80001A40028070470246002013890B400BB1B3
:101F9000012000E000207047CA4302817047F0B57D
:101FA0000246002000240023002501F00F0701262F
:101FB000BE40B4B20B1101269E40B3B2968806EA29
:101FC00003051689264016B10DB1012000E000205E
:101FD000F0BD10B5002201F00F040123A3409AB216
:101FE000D343038110BD00000030014000380040A1
:101FF000003C004010B50446FE48844208D101214F
:10200000C014FFF7B5FB0021E014FFF7B1FBC4E0FB
:10201000B4F1804F08D101210846FFF7B6FB00213B
:102020000120FFF7B2FBB8E0F348844208D1012158
:102030000220FFF7AAFB00210220FFF7A6FBACE07D
:10204000EE48844208D101210420FFF79EFB0021C5
:102050000420FFF79AFBA0E0E948844208D101215F
:102060000820FFF792FB00210820FFF78EFB94E089
:10207000E448844208D101211020FFF786FB0021AB
:102080001020FFF782FB88E0DF48844208D101215D
:102090002020FFF77AFB00212020FFF776FB7CE071
:1020A000DA48844208D101214014FFF761FB002186
:1020B0006014FFF75DFB70E0D548844209D101212F
:1020C000C804FFF755FB00214FF40020FFF750FB39
:1020D00063E0D048844209D101210805FFF748FB9D
:1020E00000214FF48010FFF743FB56E0CA488442BA
:1020F00009D101214805FFF73BFB00214FF40010F7
:10210000FFF736FB49E0C548844208D10121402051
:10211000FFF73BFB00214020FFF737FB3DE0C048C5
:10212000844208D101218020FFF72FFB002180206D
:10213000FFF72BFB31E0BB48844208D10121801519
:10214000FFF723FB0021A015FFF71FFB25E0B64892
:10215000844209D101210804FFF70AFB00214FF452
:102160008030FFF705FB18E0B048844209D1012117
:102170004804FFF7FDFA00214FF40030FFF7F8FAAA
:102180000BE0AB48844208D101218804FFF7F0FA44
:1021900000214FF48020FFF7EBFA10BD00220288E7
:1021A000944B98420ED0994B98420BD0B0F1804F8F
:1021B00008D0914B984205D0904B984202D0904B5A
:1021C000984204D14FF68F731A404B881A438D4BB7
:1021D000984207D08C4B984204D04FF6FF431A40E8
:1021E000CB881A4302808B8883850B880385814BBB
:1021F00098420BD0854B984208D08B4B984205D023
:102200008A4B984202D08A4B984201D10B7A0386BE
:1022100001238382704770B5002400220023058CBF
:102220004FF6FE7635400584028C8388048B4FF68A
:102230008F752C40B51E2C400D882C43751E2A40EE
:102240000D892A434D882A436A4DA8420BD06F4D11
:10225000A84208D0744DA84205D0744DA84202D0BF
:10226000734DA84213D14FF6F7752A404D892A4382
:102270004FF6FB752A408D882A434FF6FF652B40A9
:102280004FF6FF552B408D892B43CD892B438380FF
:102290000483CD888586028470BD70B50024002239
:1022A0000023058C4FF6EF7635400584028C838839
:1022B000048B48F6FF752C404FF6FF452C400D88E7
:1022C0004FF6FF7606EA05252C434FF6DF752A40C8
:1022D0000D8906EA05152A434D8806EA05152A43A5
:1022E000444DA84202D0494DA8421DD14FF67F75FA
:1022F0002A404D894FF6FF7606EA05152A434FF628
:10230000BF752A408D8806EA05152A434FF6FF352A
:102310002B404FF2FF752B408D8906EA85052B4334
:10232000CD8906EA85052B4383800483CD88058704
:10233000028470BD70B5002400220023058C4FF686
:10234000FF6635400584028C8388848B4FF68F7539
:102350002C404FF6FC752C400D882C434FF6FF5552
:102360002A400D894FF6FF7606EA05252A434D8857
:1023700006EA05252A431F4DA84202D0234DA84254
:102380001DD14FF2FF752A404D894FF6FF7606EAC0
:1023900005252A434FF6FF352A408D8806EA052594
:1023A0002A434EF6FF752B404DF6FF752B408D8965
:1023B00006EA05152B43CD8906EA05152B438380D4
:1023C0008483CD888587028470BD70B50022002388
:1023D0000024058C4EF6FF7635400584038C8488F6
:1023E000828B48F6FF752A404FF6FF452A400D883C
:1023F00020E00000002C01400004004000080040E4
:10240000000C004000100040001400400034014067
:10241000004C0140005001400054014000180040B1
:10242000001C0040002000400040014000440140EA
:10243000004801404FF6FF7606EA05252A434DF68F
:10244000FF752B400D8906EA05352B434D8806EABA
:1024500005352B43FA4DA84202D0FA4DA84208D1C7
:102460004BF6FF752C408D894FF6FF7606EA8515F1
:102470002C4384808283CD88A0F84050038470BDB3
:10248000828B4FF2FF331A408283828B4FF6FF73A9
:1024900003EA01231A4382837047F0B50C461546C0
:1024A000002200210026078C4EF6FF7C07EA0C076D
:1024B0000784828B018C4FF6FF7707EA043640F6DB
:1024C000FF473A404FF6FF7707EA05273A434FF6B2
:1024D000FF7707EA03373A43D94FB8420ED0D94FB6
:1024E000B8420BD0B0F1804F08D0D74FB84205D0DA
:1024F000D64FB84202D0D64FB84206D14DF6FF773C
:10250000394046F48057394305E047F6FF573940D4
:1025100044F48057394382830184F0BD828B4FF6A7
:10252000F3731A408283828B0A4382837047F0B52B
:102530000C461546002200210026078C4FF6FF6C42
:1025400007EA0C070784828B018C4FF6FF7707EAB6
:1025500004264FF60C773A404FF6FF7707EA031749
:102560002F433A43B64FB8420ED0B64FB8420BD0C5
:10257000B0F1804F08D0B44FB84205D0B34FB84245
:1025800002D0B34FB84206D14FF6FF57394046F458
:102590008077394305E04FF2FF57394044F48077A4
:1025A000394382830184F0BD028B4FF2FF331A401E
:1025B0000283028B4FF6FF7303EA01231A4302835F
:1025C0007047F0B50C461546002200210026078C06
:1025D0004FF6EF7C07EA0C070784028B018C4FF65D
:1025E000FF7707EA041640F6FF473A404FF6FF77B9
:1025F00007EA03373A434FF6FF7707EA05273A43DE
:102600008F4FB8420ED08F4FB8420BD0B0F1804FF1
:1026100008D08D4FB84205D08C4FB84202D08C4FB5
:10262000B84206D14FF6DF77394046F010073943FC
:1026300005E04FF65F77394044F0100739430283D5
:102640000184F0BD028B4FF6F3731A400283028BB4
:102650000A4302837047F0B50C461546002200215C
:10266000068C4FF6FE773E400684028B018C4FF6B7
:102670000C7632407E1C06EA03162E433243704E1F
:10268000B0420ED06F4EB0420BD0B0F1804F08D0A8
:102690006D4EB04205D06D4EB04202D06C4EB0428D
:1026A00006D14FF6FD76314044F00106314305E096
:1026B0004FF6F576314044F0010631430283018440
:1026C000F0BD70B505460C465D4885420ED05D48AC
:1026D00085420BD0B5F1804F08D05B48854205D0CC
:1026E0005A48854202D05A48854200D100E000BFD6
:1026F000208850B92389A28861882846FFF7ABFF5C
:10270000E1882846FFF79EFF25E0208804280AD1AB
:102710002389A28861882846FFF753FFE18828466D
:10272000FFF742FF17E0208808280AD12389A288F2
:1027300061882846FFF7FBFEE1882846FFF7EEFE9A
:1027400009E02389A28861882846FFF7A6FEE18870
:102750002846FFF795FE70BD2DE9F04105460C4671
:1027600000260127608808B9022600E00026A0881C
:10277000012801D1022700E001272088A0B9238980
:10278000A28861882846FFF766FFE1882846FFF7A0
:1027900059FF23893A4631462846FFF712FFE18860
:1027A0002846FFF701FF13E02389A28861882846A5
:1027B000FFF707FFE1882846FFF7F6FE23893A4630
:1027C00031462846FFF747FFE1882846FFF73AFFE2
:1027D000BDE8F0810A884B881A438B881A43CB885E
:1027E0001A430B891A434B891A438B891A43A0F861
:1027F000442070474FF6FF71818000210180C18025
:102800004180017270470021018041808180C18038
:10281000018141818181C181704700210180418016
:10282000012181800021C180018170470021018048
:1028300041808180C1800181418181817047000098
:10284000002C01400034014000040040000800401A
:10285000000C004021B1028842F00102028004E035
:1028600002884FF6FE731A400280704731B1B0F80B
:10287000442042F40042A0F8442005E0B0F844208F
:10288000C2F30E02A0F8442070471AB183890B43AB
:10289000838102E083898B43838170478182704703
:1028A00041EA0203A0F8483070471AB183890B430C
:1028B000838102E083898B438381704701894FF6CE
:1028C000F8721140018170470A46002101894FF6D4
:1028D0008F73194011430181704730B504460D468E
:1028E00029462046FFF7F0FF208940F007002081AD
:1028F00030BD2DE9F04104460D4616461F46602DB9
:1029000006D13B46012231462046FFF75AFE05E03C
:102910003B46012231462046FFF79DFE29462046D0
:10292000FFF7D2FF208940F007002081BDE8F08149
:1029300030B50C4600210189C9B24FF6FF7505EA92
:102940000325154325432943018130BD2DE9F0417D
:1029500005460E4617469846002443463A463146F9
:102960002846FFF7E5FF2C894FF6F870044044F045
:1029700007044FF68F70044044F070042C81BDE8CA
:10298000F081F0B504460D4616461F463B463246DA
:1029900029462046FFF7CCFF208940F48040208163
:1029A000F0BD0185828270470A46002101884FF6FA
:1029B0008F731940114301807047F0B50C461546DE
:1029C0001E460021002200230189028B038C4FF652
:1029D000F877394021434FF6FC473A4040F201175F
:1029E0003A434FF6DD773B404FF6FF7707EA06178D
:1029F0002F433B43018102830384F0BD0A4600213B
:102A0000018B4FF68F7319401143018370470A46BB
:102A10000021018B48F6FF7319404FF6FF7303EA5C
:102A200002231943018370470A460021818B4FF628
:102A30008F7319401143818370470A460021818BAF
:102A400048F6FF7319404FF6FF7303EA0223194358
:102A50008183704721B1028842F08002028004E045
:102A600002884FF67F731A400280704721B1828836
:102A700042F00402828004E082884FF6FB731A4021
:102A80008280704721B1828842F00802828004E08F
:102A900082884FF6F7731A408280704721B182888E
:102AA00042F00102828004E082884FF6FE731A40F1
:102AB000828070470A460021018B4FF6F773194058
:102AC0001143018370470A460021018B4FF2FF73C7
:102AD00019404FF6FF7303EA02231943018370473D
:102AE0000A460021818B4FF6F77319401143818309
:102AF00070470A460021818B4FF2FF7319404FF651
:102B0000FF7303EA02231943818370470A460021B9
:102B1000018B4FF6FB7319401143018370470A463E
:102B20000021018B4FF6FF3319404FF6FF7303EA84
:102B300002231943018370470A460021818B4FF617
:102B4000FB7319401143818370470A460021818B32
:102B50004FF6FF3319404FF6FF7303EA0223194380
:102B6000818370470A460021018B4FF67F7319401D
:102B70001143018370470A460021018BC1F30E0106
:102B80004FF6FF7303EA02231943018370470A4695
:102B90000021818B4FF67F73194011438183704769
:102BA0000A460021818BC1F30E014FF6FF7303EA41
:102BB00002231943818370470A460021018C4FF696
:102BC000FD7319401143018470470A460021018CAE
:102BD0004FF6F77319401143018470470A460021EC
:102BE000018C4FF6DF7319404FF6FF7303EA0213AF
:102BF0001943018470470A460021018C4FF67F7308
:102C000019404FF6FF7303EA02131943018470471A
:102C10000A460021018C4FF6FF5319404FF6FF730F
:102C200003EA02231943018470470A460021018CFC
:102C30004FF2FF7319404FF6FF7303EA0223194363
:102C4000018470470A460021018C4DF6FF7319403C
:102C50004FF6FF7303EA023319430184704730B51E
:102C6000002301248C40A3B2048C9C430484048C74
:102C700002FA01F5ADB22C43048430BD30B5002317
:102C800004248C40A3B2048C9C430484048C02FA78
:102C900001F5ADB22C43048430BD70B5034600206D
:102CA00000241846183001258D40ACB21D8CA54378
:102CB0001D8409B1082909D100EB6100056825F0E0
:102CC000700505600568154305600EE00D1FC5F32E
:102CD0004E052844056825F4E045056005684FF673
:102CE000FF7606EA02263543056070BD21B10288F1
:102CF00042F00202028004E002884FF6FD731A409F
:102D00000280704721B1028842F00402028004E090
:102D100002884FF6FB731A400280704721B1828807
:102D200042F08002828004E082884FF67F731A406E
:102D30008280704702884FF6F7731A40028002883B
:102D40000A430280704782884FF68F731A40828050
:102D500082880A438280704702894FF6F8731A40CE
:102D6000028102890A430281704702894FF67F730C
:102D70001A40028102890A430281704781847047A8
:102D800081857047818670470187704781877047CA
:102D9000A0F84010704702884FF6FF431A400280A7
:102DA00002880A43028070470146888E70470146B8
:102DB000088F70470146888F70470146B1F8400080
:102DC00070470146888C70470146088D704702465F
:102DD0000020138A0B400BB1012000E00020704757
:102DE000CA430282704730B5024600200023002407
:102DF000158A05EA0103958905EA010413B10CB1AE
:102E0000012000E0002030BDCA430282704700006C
:102E100070B503460C4603E014F8015B03F8015B50
:102E20001500A2F10102F7D170BD30B5034601E0F3
:102E300003F8011B1400A2F10102F9D130BD00B565
:102E40005A494FF40C62C8680021FFF7EEFF57495A
:102E50004FF40C4288680021FFF7E7FF0120534937
:102E6000087400BD0022002106E05048C06830F818
:102E7000110000B1521C491CB1F58C6FF5D36420D0
:102E800050434FF48C63B0FBF3F0C0B270472DE9B0
:102E9000F04106460024A0464448007C10B943494E
:102EA000086880471EB94FF0FF30BDE8F081C6F3D7
:102EB0004F1506F01F0008B1681C85B240F25F4450
:102EC0001AE03A48C06830F8140020B908F101004F
:102ED0001FFA80F801E04FF00008A8450BD1002749
:102EE00005E03248C068E11920F811507F1CAF425C
:102EF000F7D36001D9E7641E002CE2DA4FF0FF300F
:102F0000D3E770B505462948007C20B927490868F1
:102F10008047012070BDB5F50C4F11D269092348D7
:102F2000C06830F81120002406E000201F4BDB6849
:102F30000E1923F81600641C9442F6DB0020E9E722
:102F40000220E7E770B5044604B970BD17488068F1
:102F5000251A2846FFF7D5FF00BFF6E770B50546EE
:102F60002846FFF794FF0446601C08B9002070BD96
:102F70000E4880682044FAE770B506460C462046A5
:102F8000FFF785FF0546681C08B9002070BD07499A
:102F90008968481922463146FFF73AFF3046FFF765
:102FA000D1FF024880682844F0E700003800002084
:102FB00010B58CB004461E230BAA03A9204600F0CE
:102FC000AFFE0090009810B101200CB010BD9DF82C
:102FD0002C00044400200B900EE040489DF82C206B
:102FE00050F8221003A800F003FE00B908E09DF895
:102FF0002C00401CC0B20B909DF82C000728ECD38D
:1030000000BF9DF82C00072863D2DFE800F004051C
:103010003C5E6564630000BF31A004F089FE31A00E
:1030200004F086FE3FA004F083FE4EA004F080FE74
:103030005CA004F07DFE6BA004F07AFE79A004F0A1
:1030400077FE86A004F074FE8BA004F071FE90A0C1
:1030500004F06EFE94A004F06BFE99A004F068FEEC
:103060009EA004F065FEA4A004F062FEB0A004F0EF
:103070005FFEBDA004F05CFEC8A004F059FED4A021
:1030800004F056FE9AE216A004F052FEE0A004F00E
:103090004FFE00200B900EE0ED4800689DF82C20BC
:1030A00000EBC2004168EBA004F042FE9DF82C004A
:1030B000401CC0B20B90E648007D9DF82C10884261
:1030C000EADC07A004F034FE78E205A004F030FE4C
:1030D000C4E171E245E219E2ECE100004C0000209D
:1030E0000D0A00002D2D2D2D2D2D2D2D2D2D2D2DAD
:1030F0002D2D2D2D2D2D2D2D2D2D2D2D55534D417E
:1031000052542056332E312D2D2D2D2D2D2D2D2D7C
:103110002D2D2D2D2D2D2D2D2D2D2D2D2D2D2D20EC
:103120000D0A00002020202055534D415254CAC79B
:10313000D3C9414C49454E54454BBFAAB7A2B5C46B
:10314000D2BBB8F6C1E9C7C9B5C4B4AEBFDAB5F7EA
:10315000CAD4BBA5BDBBD7E9BCFE2CCDA8B9FD2008
:103160000D0A0000CBFC2CC4E3BFC9D2D4CDA8B952
:10317000FDB4AEBFDAD6FACAD6B5F7D3C3B3CCD056
:10318000F2C0EFC3E6B5C4C8CEBACEBAAFCAFD2C02
:10319000B2A2D6B4D0D02ED2F2B4CB2CC4E3BFC9E5
:1031A0000D0A0000D2D4CBE6D2E2B8FCB8C4BAAF64
:1031B000CAFDB5C4CAE4C8EBB2CECAFD28D6A7B3CF
:1031C000D6CAFDD7D62831302F3136BDF8D6C6291C
:1031D000A1A2D7D6B7FBB4AEA1A2BAAFCAFDC8EBC5
:1031E0000D0A0000BFDAB5D8D6B7B5C8D7F7CEAA52
:1031F000B2CECAFD292CB5A5B8F6BAAFCAFDD7EE36
:10320000B6E0D6A7B3D63130B8F6CAE4C8EBB2CE32
:10321000CAFD2CB2A2D6A7B3D6BAAFCAFDB7B520A5
:103220000D0A0000BBD8D6B5CFD4CABE2ED0C2D4AA
:10323000F6B2CECAFDCFD4CABEBDF8D6C6C9E8D64E
:10324000C3B9A6C4DC2CD0C2D4F6BDF8D6C6D7AA62
:10325000BBBBB9A6C4DC2E0D0A000000BCBCCAF57D
:10326000D6A7B3D63A7777772E6F70656E6564769A
:103270002E636F6D0D0A000055534D415254D3D04B
:1032800037B8F6CFB5CDB3C3FCC1EE3A0D0A000096
:103290003F3A202020202020BBF1C8A1B0EFD6FA71
:1032A000D0C5CFA20D0A000068656C703A202020BE
:1032B000BBF1C8A1B0EFD6FAD0C5CFA20D0A00006D
:1032C0006C6973743A202020BFC9D3C3B5C4BAAFA8
:1032D000CAFDC1D0B1ED0D0A0A00000069643A20B0
:1032E00020202020BFC9D3C3BAAFCAFDB5C449440A
:1032F000C1D0B1ED0D0A0A006865783A202020207F
:10330000B2CECAFD3136BDF8D6C6CFD4CABE2CBAAD
:10331000F3B8FABFD5B8F12BCAFDD7D6BCB4D6B432
:10332000D0D0BDF8D6C6D7AABBBB0D0A0A00000094
:103330006465633A20202020B2CECAFD3130BDF84A
:10334000D6C6CFD4CABE2CBAF3B8FABFD5B8F12BC3
:10335000CAFDD7D6BCB4D6B4D0D0BDF8D6C6D7AA8D
:10336000BBBB0D0A0A00000072756E74696D653A88
:10337000312CBFAAC6F4BAAFCAFDD4CBD0D0BCC6DC
:10338000CAB13B302CB9D8B1D5BAAFCAFDD4CBD075
:10339000D0BCC6CAB13B0D0A0A000000C7EBB0B4EE
:1033A000D5D5B3CCD0F2B1E0D0B4B8F1CABDCAE43F
:1033B000C8EBBAAFCAFDC3FBBCB0B2CECAFDB2A265
:1033C000D2D4BBD8B3B5BCFCBDE1CAF82E0D0A00FF
:1033D0002D2D2D2D2D2D2D2D2D2D2D2D2D2D2D2D1D
:1033E0002D2D2D2D2D2D2D2D2D2D414C49454E545E
:1033F000454B2D2D2D2D2D2D2D2D2D2D2D2D2D2DC7
:103400002D2D2D2D2D2D2D2D2D2D2D200D0A000096
:103410002D2D2D2D2D2D2D2D2D2D2D2D2D2D2D2DDC
:103420002D2D2D2D2D2D2D2D2DBAAFCAFDC7E5B576
:10343000A52D2D2D2D2D2D2D2D2D2D2D2D2D2D2D44
:103440002D2D2D2D2D2D2D2D2D2D2D2D200D0A0029
:103450003801002025730D0A00000000F1A004F0DF
:1034600067FC00200B901AE0FE4909689DF82C20AB
:1034700001EBC20101AB02AA486803A900F076FC87
:10348000F84800689DF82C1050F8312003A9F6A0E8
:1034900004F04EFC9DF82C00401CC0B20B90F1488B
:1034A000007D9DF82C108842DEDCAFF2CC3004F0B9
:1034B0003FFC83E0AFF2D83004F03AFC0BAA03A93A
:1034C000204600F02FFD9DF82C00C8B9694603A8DE
:1034D00000F0C1FB0B909DF82C0020B9E7A00099EB
:1034E00004F026FC0EE09DF82C00042801D00220F8
:1034F0006BE5E5A004F01CFC0120DA49C87501E089
:10350000022062E5DFA004F013FC57E0DDA004F028
:103510000FFC0BAA03A9204600F004FD9DF82C0027
:10352000C8B9694603A800F096FB0B909DF82C00E3
:1035300020B9DAA0009904F0FBFB0EE09DF82C0006
:10354000042801D0022040E5D7A004F0F1FB0020C0
:10355000C449C87501E0022037E5CAA004F0E8FBC1
:103560002CE0C8A004F0E4FB0BAA03A9204600F05D
:10357000D9FC9DF82C00C8B9694603A800F06BFB84
:103580000B909DF82C0078B9B649009881F8EC00B2
:10359000084690F8EC0018B1C8A004F0C9FB07E099
:1035A000CDA004F0C5FB03E002200EE502200CE5EF
:1035B000B4A004F0BDFB01E0012006E500BF00203F
:1035C00003E5CC48008820F00100CA4908804FF686
:1035D000FF70C8491C3108800020C649143108809A
:1035E000A049C1F8F0007047C248008800F001000F
:1035F00040B19C48D0F8F0004FF6FF71084499495B
:10360000C1F8F0009748D0F8F000BA4914310988A1
:1036100008449449C1F8F0000846D0F8F00070471B
:1036200010B5B448008800F0010058B18D49086910
:1036300080470020AF49143108804FF47A70AD49BB
:103640001C310880AB48008820F00100A94908809F
:1036500010BD7FB505460C4601210420FEF77BF81E
:10366000ADF80850ADF804400020ADF80A00ADF800
:10367000060001A99F481038FEF790FD0122412164
:103680009C481038FFF701F91E208DF80000032038
:103690008DF801008DF8020001208DF803006846C6
:1036A000FEF7B9FA012193481038FFF7D3F87FBD30
:1036B00010B5044604EBC40000EB04100122C2EB79
:1036C000800081B24FF47A70FFF7C3FF0120654993
:1036D000C87510BD30B595B0054613AB12AA09A93F
:1036E000284600F043FB044614B1204615B030BD17
:1036F0000020149026E05B4909689DF8502001EBFA
:10370000C20113AB11AA486801A900F02FFB0446BF
:103710000CB12046EAE709A901A800F069FA60B9EE
:103720009DF844009DF84810884201DD0220DDE745
:103730009DF850004B4988750AE09DF85000401CE8
:10374000C0B214904748007D9DF850108842D2DCEA
:1037500000BF4448007D9DF85010884201D10420EC
:10376000C4E714A9284600F04EFC04460CB12046DC
:10377000BCE79DF850003B4948750020B6E72DE9AD
:10378000F0419AB000263748847D007DA04202DCDB
:103790001AB0BDE8F0813349096801EBC40106ABFA
:1037A00007AA486808A900F0E1FA08A952A004F0A5
:1037B000BFFA0025BAE02B48008B0121A940084040
:1037C000D8B122214EA004F0B3FA284600F00EFC36
:1037D00024492431471839464AA004F0A9FA222185
:1037E00047A004F0A5FA284600F000FC1D4924314A
:1037F000084410A941F825008EE0284600F0F6FBA9
:1038000018492431085810A941F825001548C07DF1
:1038100030B910A850F825103BA004F089FA7BE0DD
:1038200074E000002D2D2D2D2D2D2D2D2D2D2D2D28
:103830002D2D2D2D2D2D2D2D2D2D2D2D2DBAAFCA0C
:10384000FD204944202D2D2D2D2D2D2D2D2D2D2DBF
:103850002D2D2D2D2D2D2D2D2D2D2D2D2D2D2D2D98
:10386000200D0A0038010020257320696420697347
:103870003A0D0A3058253038580D0A004845583A54
:10388000305825580D0A00003136BDF8D6C6B2CEE4
:10389000CAFDCFD4CABE210D0A0000004445433AF8
:1038A000256C750D0A0000003130BDF8D6C6B2CEC9
:1038B000CAFDCFD4CABE210D0A00000052756E2089
:1038C00054696D652043616C63756C6174696F6EDA
:1038D000204F4E0D0A00000052756E2054696D6530
:1038E0002043616C63756C6174696F6E204F46464E
:1038F0000D0A0000100800400D0A25732800000082
:103900002563000025730000256C750010A850F891
:10391000251095A004F00CFA9DF81C00401EA8424A
:1039200002D093A004F004FA681CC5B29DF81C00F4
:103930008542FFF640AF8FA004F0FAF9FFF741FE91
:103940008D48407D0B280DD2DFE800F0060D151ED6
:1039500027323F4E5F7287008749096851F834006B
:103960008047064690E0844A126852F83410109856
:103970008847064688E0804B1B6853F83420DDE911
:103980001001904706467FE07B4F3F6857F8343080
:1039900010A807C89847064676E0DFF8DCC1DCF8D7
:1039A00000C05CF8347010A80FC8B84706466BE03A
:1039B0001498DFF8C4C10090DCF800C05CF83470E3
:1039C00010A80FC8B84706465EE0DDE91401DFF82D
:1039D000A8C1CDE90001DCF800C05CF8347010A883
:1039E0000FC8B84706464FE0DDE914121698DFF815
:1039F00088C1CDE900120290DCF800C05CF8347098
:103A000010A80FC8B84706463EE0DDE91423DDE9FB
:103A10001610DFF864C1CDE90023CDE90210DCF80F
:103A200000C05CF8347010A80FC8B84706462BE0F9
:103A3000DDE9163218991598CDE90232049101900A
:103A40001498DFF834C10090DCF800C05CF83470E2
:103A500010A80FC8B847064616E0DDE91623DDE9D1
:103A60001810CDE90223CDE90410DDE91401DFF8D7
:103A700008C1CDE90001DCF800C05CF8347010A882
:103A80000FC8B847064600BF00BFFFF7ADFD9DF861
:103A9000180001280CD13848C07D20B9314637A024
:103AA00004F046F907E0314636A004F041F902E09F
:103AB00033A004F03DF9304890F8EC0088B12E486E
:103AC000D0F8F0000A21B0FBF1F201FB12072A48FE
:103AD000D0F8F000B0FBF1F83A4641462CA004F0D3
:103AE00027F900BF54E670B53148008800F4004063
:103AF000002833D02E48057800202E4948551E480E
:103B000081682C48884704461CB91B49C86880470F
:103B100021E02848FFF74CFA0546012D00D02C463D
:103B2000CCB1012C06D0022C08D0032C0AD0042CD6
:103B300010D10BE020A004F0FBF80BE021A004F072
:103B4000F7F807E022A004F0F3F803E023A004F064
:103B5000EFF800BF00BF00201549088070BD014686
:103B60000868704701607047305825580000000011
:103B70002C00000029000000380100203D256C7554
:103B80003B0D0A003D305825583B0D0A000000004F
:103B900046756E6374696F6E2052756E2054696D40
:103BA000653A25642E2531646D730D0A000000000E
:103BB00020000020A2030020BAAFCAFDB4EDCEF36E
:103BC000210D0A00B2CECAFDB4EDCEF3210D0A00DC
:103BD000B2CECAFDCCABB6E0210D0A00CEB4D5D230
:103BE000B5BDC6A5C5E4B5C4BAAFCAFD210D0A006E
:103BF00002460AE010780B78984201D00120704705
:103C0000107800B902E0521C491CF3E700BF002005
:103C1000F5E706E002780A70027802B902E0401C7B
:103C2000491CF7E700BF70470146002005E00A780D
:103C300002B903E0421CD0B2491CF8E700BF70474C
:103C400010B50246012000E050430B00A1F1010431
:103C5000E1B2F9D110BD2DE9F04307460E4600252B
:103C60004FF00A083C46002030601FE020783928D9
:103C700002DC207830280ADA2078462802DC207816
:103C8000412804DA2078582809D1012D07D120785D
:103C9000412801DB4FF01008681CC5B205E0207810
:103CA00000B904E00120BDE8F083641CDEE700BF3A
:103CB0003C46B8F1100F0FD1032D01DA0220F2E7D4
:103CC0002078302806D16078582803D1A41CA81E7B
:103CD000C5B204E00320E6E70DB90420E3E71BE0EA
:103CE0000DB1681EC5B22078392806DC207830284E
:103CF00003DB2078A0F1300902E02078A0F1370939
:103D000029464046FFF79CFF316809FB00103060F0
:103D1000641C207800B900E0E2E700BF0020C2E7A1
:103D200010B50446002010700BE020780870641C69
:103D3000491C1078401C10701078984201DB01205B
:103D400010BD2078202802D020780028EDD1002056
:103D5000087000BFF4E70146491C00E0491C0878E0
:103D6000202801D10029F9D1087870472DE9FF4FAB
:103D700085B08046894600270020049003900120EA
:103D800002904FF0000B002544461DE020782028CB
:103D900016D005F07F00052812DA0DB945F0800530
:103DA00005F07F00042803D120782A2800D00EE0F7
:103DB000207805F07F010DF80100681CC5B202E013
:103DC000852D00D103E0641C20780028DED100BFDF
:103DD0008DB1002005F07F010DF80100CBA16846F0
:103DE000FFF706FF18B900210898017002E00121D1
:103DF0000898017000254FF0000A444614E0641C46
:103E00000AF1010000F0FF0A2078202802D0207873
:103E10002A2809D12046FFF79EFF0646282E03D008
:103E20002A2E01D0CDF810A02078282802D02078A2
:103E30000028E4D14446049810B10498401C04447E
:103E40004FF0000A002654E0207810B94FF0010A24
:103E500050E02078282803D116B9781CC7B213E0A7
:103E60002078292808D13EB917B1781EC7B201E0E1
:103E70004FF0010A47B93DE02078222804D10EB95D
:103E8000012000E00020064647B9207820282FD0E6
:103E9000207889F8000009F1010929E020782C2810
:103EA00004D101200290681CC5B214E020782028BB
:103EB00011D0207828280ED04DB9BBF1050F06DAB5
:103EC00020780DF80B000BF1010000F0FF0B0298B9
:103ED000401CC0B20290012F0AD10298022807D1DB
:103EE0000298401CC0B202900398401CC0B20390DC
:103EF000641CA9E700BF0398012809D100200DF830
:103F00000B0082A16846FFF773FE08B900200390FA
:103F1000079903980870002089F80000504609B0FE
:103F2000BDE8F08FF0B503461546002000220026BC
:103F3000002455E01F782C2F01D104B901221F78ED
:103F4000292F01D01F780FB904B94AE0002E34D1CF
:103F50001F78302F02DB1F78392F11DD1F78612F7A
:103F600002DB1F78662F0BDD1F78412F02DB1F78E5
:103F7000462F05DD1F78582F02D01F78782F0CD1DF
:103F800002B12EE01F78612F03DB1F78203F0F70F6
:103F900001E01F780F70491C1FE01F78222F04D109
:103FA00002B11EE00126012417E01F78202F14D053
:103FB0001F782C2F11D0FF2613E01F78222F00D15D
:103FC000002402B10DE044B11F785C2F02D15B1CCC
:103FD000471CF8B21F780F70491C471CF8B25B1CD5
:103FE000A8E700BF00270F702E70F0BD024600202A
:103FF000002105E0474B5B5C0344D8B24B1CD9B2AF
:104000009142F7DB70472DE9F043B5B005460F4606
:104010000024002604E000213E488155701CC6B2F1
:104020000A2EF8DB06E06D1C287818B9012035B09F
:10403000BDE8F08328782828F5D16D1C61E034AA0A
:1040400069462846FFF76EFF064635449DF8D000C6
:1040500020B1012827D0FF284CD149E09DF800006D
:1040600000B333A96846FFF7F6FD06460EB10220FD
:10407000DDE72046FFF7BAFF26490A31339A0A5096
:10408000A1F12400008B0121A140884321491A3964
:10409000088304211F480155601CC4B20A2C01DDAD
:1040A0000320C4E726E06846FFF7BEFD401C00F091
:1040B000FF082046FFF79AFF16490A3100EB010975
:1040C00049466846FFF7A5FD12481A38018B0120C2
:1040D000A040014388B20F491A3908830D4800F8FF
:1040E0000480601CC4B20A2C01DD03209FE701E0BC
:1040F00002209CE700BF2878292801D0287800B941
:1041000000E09CE700BF3C70002090E7766F696498
:10411000000000005201002070B504460D46F7492A
:104120002A460868214601F030FF70BD70B504468C
:104130000D462A462146F248006801F051FF064626
:10414000304670BD10B5EE48006802F03BFA002022
:1041500010BD2DE9F047044600260027E9A003F032
:10416000E7FDB14625E0ED4B4FF40072EC480168E5
:10417000E348006801F0F4FF064626B13146E9A0A5
:1041800003F0D6FD1BE0E5480088384487B20025DF
:1041900007E0E3480068415DE6A003F0C9FD681C44
:1041A00085B2DE4800688542F3D309F101001FFAA9
:1041B00080F9E11704EBD151B9EB612FD3DB00BFDC
:1041C000E11704EBD1514912A4EB412131B3A046D0
:1041D000E01704EBD0504012A4EB4022CF4BD04864
:1041E0000168C748006801F0BBFF064626B13146AA
:1041F000D1A003F09DFD11E0C8480088384487B283
:10420000002507E0C6480068415DCAA003F090FDA4
:10421000681C85B2C14800688542F3D31FB1394696
:10422000CAA003F085FDCFA003F082FD3046BDE8B3
:10423000F08770B505460E46CFA003F079FD3146F4
:10424000D3A003F075FDD74B32462946AC48006831
:1042500002F067F8044624B12146D3A003F068FDBC
:1042600004E0D0480168D5A003F062FDD9A003F0B6
:104270005FFD204670BD10B504462146DA4802F0C5
:10428000F8FA10BD10B5D84802F037FB10BD70B574
:1042900040F2FF10D549C861C869FEF75FFED349F7
:1042A0008861D14802F034FB044614B9CF48407A03
:1042B00028B9CE498869FEF745FE204670BDCB4837
:1042C0008069007810B1C948806901E0C7480930A9
:1042D0000546C7A003F02CFDC3488188C8A003F0A1
:1042E00027FDC148C188C9A003F022FDBE488168EE
:1042F000CAA003F01DFDBC48C168CCA003F018FDA6
:10430000B9480169CDA003F013FD83A003F010FDAF
:104310002946CEA003F00CFDB4480168D0A003F0FC
:1043200007FDB2488188D3A003F002FDAF48C188E1
:10433000D5A003F0FDFCAD48017AD8A003F0F8FC4D
:1043400075A003F0F5FCA9498869FEF7FBFD002084
:10435000B4E770B5054640F2FF10A449C861C869CA
:10436000FEF7FCFDA149886129469F4802F081FAC9
:1043700004460CBB68A003F0DBFC1BE09B499A4899
:1043800002F0C6FA044614B99848407A00B912E01F
:1043900096488069007810B19448806901E093489C
:1043A000093006462946C2A003F0C2FC3146C1A02E
:1043B00003F0BEFCE2E700BF8C498869FEF7C2FD4E
:1043C000204670BD2DE9FC410646002000900024E7
:1043D000002501AA6946304602F0FDFA0746002F83
:1043E00019D101984069801E0199897800FB01F577
:1043F00001988078009900FB01F4B5F5A04F05D233
:1044000062086908ADA003F093FC04E0E20AE90A3F
:10441000B4A003F08DFC2046BDE8FC8110B5044635
:1044200021463748006802F0DDF810BD34480068C6
:104430008068704732480068C068704710B504460D
:10444000204602F006FC10BD70B504460D46164627
:1044500032462946204602F010FF70BD10B50446D2
:10446000204602F095FB10BD70B504460D46294666
:10447000204602F01BFD70BD30B587B00446002019
:10448000019001AA02A9204602F0ADFD054655B9EA
:1044900002AA21469DA003F04BFC2146A1A0019A4F
:1044A00003F046FC03E02946A4A003F041FC07B05A
:1044B00030BD70B50446204602F0F4FD054625B92E
:1044C0002146A4A003F034FC03E02946A7A003F092
:1044D0002FFC70BD70B5044609482146026810489B
:1044E000006803F0DBF90546287800B970BD29465D
:1044F000A6A003F01DFC00BFF8E700006403002045
:104500006C0300200D0A526561642066696C6520A9
:10451000646174612069733A0D0A0000740300201D
:104520007C03002052656164204572726F723A25E7
:10453000640D0A00256300000D0A52656164204580
:1045400072726F723A25640D0A0000000D0A5265FE
:10455000616465642064617461206C656E3A2564F1
:104560000D0A0000526561642064617461206F76F9
:1045700065720D0A000000000D0A426567696E2031
:1045800057726974652066696C652E2E2E0D0A00BF
:1045900057726974652064617461206C656E3A2598
:1045A000640D0A0078030020577269746520457213
:1045B000726F723A25640D0A000000005772697428
:1045C00065642064617461206C656E3A25640D0A2F
:1045D0000000000057726974652064617461206F87
:1045E0007665722E0D0A00004C9900202C9900204F
:1045F0000D0A2044495220696E666F3A0D0A000088
:104600006469722E69643A25640D0A006469722E29
:10461000696E6465783A25640D0A00006469722E3B
:1046200073636C7573743A25640D0A006469722EA5
:10463000636C7573743A25640D0A00006469722E08
:10464000736563743A25640D0A00000046696C6561
:10465000204E616D652069733A25730D0A000000D4
:1046600046696C652053697A652069733A25640D43
:104670000A00000046696C652064617461206973FA
:104680003A25640D0A00000046696C652074696D66
:10469000652069733A25640D0A00000046696C655F
:1046A00020417474722069733A25640D0A00000079
:1046B00025732F0025730D0A000000000D0AB4C5F4
:1046C000C5CCD7DCC8DDC1BF3A2564204B420D0AFA
:1046D000BFC9D3C3BFD5BCE43A2564204B420D0A01
:1046E000000000000D0AB4C5C5CCD7DCC8DDC1BFD1
:1046F0003A2564204D420D0ABFC9D3C3BFD5BCE4DF
:104700003A2564204D420D0A000000000D0AB4C590
:10471000C5CC257320B5C4C5CCB7FBCEAA3A25734A
:104720000D0A0000B4C5C5CC257320B5C4D0F2C1B4
:10473000D0BAC53A25580D0A0D0A00000D0ABBF182
:10474000C8A1CAA7B0DCA3ACB4EDCEF3C2EB3A2546
:10475000580D0A000D0AB4C5C5CCC5CCB7FBC9E8D5
:10476000D6C3B3C9B9A63A25730D0A000D0AB4C55C
:10477000C5CCC5CCB7FBC9E8D6C3CAA7B0DCA3ACCF
:10478000B4EDCEF3C2EB3A25580D0A000D0A546879
:104790006520537472696E67205265616465642098
:1047A00049733A25730D0A0010B50446074801689D
:1047B000204603F0BEF8C0B210BD10B50446034851
:1047C0000168204603F0D5F8C0B210BD6C0300208C
:1047D00070B50446002514B1012C1DD10BE0FCF787
:1047E000D4F9054635B1FCF78BF8FF20FCF782F8C9
:1047F000FCF78BF812E0FBF7F1FE704800884EF6EC
:104800001671884204D142F268606D49088002E066
:1048100000206B49088001E0012500BF00BF0DB1F9
:10482000012070BD0020FCE70146002070472DE903
:10483000F04107460E4615461C464FF0000814B9D5
:104840000420BDE8F08117B1012F20D110E0E2B2C1
:1048500029463046FCF760FA8046B8F1000F06D0D2
:10486000FCF74EF8FF20FCF745F8FCF74EF811E096
:1048700009E069024FF400723046FBF709FF6D1C36
:1048800006F50076641E002CF3D1A04602E04FF03E
:10489000010800BF00BFB8F1000F01D10020D0E730
:1048A0000120CEE72DE9F04107460E4615461C468D
:1048B0004FF0000814B90420BDE8F08117B1012FB2
:1048C00016D106E0E2B229463046FCF75DFA804692
:1048D00011E009E069024FF400723046FBF770FF07
:1048E0006D1C06F50076641E002CF3D1A04602E094
:1048F0004FF0010800BF00BFB8F1000F01D1002048
:10490000DAE70120D8E72DE9F04106460F461546C3
:104910002EBB37B1012F1AD0022F0FD0032F1BD17E
:1049200011E0002027490860FCF718F808B90024B6
:1049300000E001240120234908600FE04FF40070DB
:10494000288000240AE008202880002406E0FCF7E4
:10495000E1F82860002401E0042400BF1DE0012EDE
:104960001AD137B1012F0FD0022F04D0032F10D14D
:1049700006E000240FE04FF40070288000240AE0D5
:1049800008202880002406E00D48008828600024C4
:1049900001E0042400BF00E001242046BDE8F081CE
:1049A0000020704710B504462046FEF7D7FA10BD28
:1049B00010B504462046FEF7C5FA10BD14000020CD
:1049C000800300208C01214270B503460C4603E0B1
:1049D00014F8015B03F8015B1500A2F10102F7D1A5
:1049E00070BD30B5034601E003F8011B1400A2F1CD
:1049F0000102F9D130BDF0B503461C460D4600203A
:104A000000BF1600A2F1010207D014F8017B15F8CF
:104A100001CBA7EB0C063000F3D0F0BD024600E05E
:104A2000521C107810B110788842F9D11078704774
:104A300070B504462079F8B1E56A607801232A460A
:104A400004F13001FFF72EFF08B1012070BD0020F6
:104A50002071206A281AA16988420DD2E67809E0FF
:104A6000A0690544607801232A4604F13001FFF76C
:104A700019FF761E022EF3D20020E7E770B5044638
:104A80000D46E06AA84210D02046FFF7D1FF08B1DA
:104A9000012070BD607801232A4604F13001FFF740
:104AA000C6FE08B10120F4E7E5620020F1E770B529
:104AB00004462046FFF7BCFF0546002D59D120785B
:104AC00003284FD1607901284CD14202002104F122
:104AD0003000FFF786FF552184F82E12AA2184F8B2
:104AE0002F12522084F830005221312001556121CB
:104AF00032200155412133200155722184F81412CE
:104B000084F81512412184F81612612184F81712D5
:104B1000217C84F81812208A010A84F8191220696D
:104B2000010C84F81A122069010E84F81B12217BF3
:104B300084F81C12A089010A84F81D12E068010C97
:104B400084F81E12E068010E84F81F12E069401C10
:104B5000E0626078012304F13001E26AFFF7A2FE0F
:104B600000206071607800221146FFF7CCFE00B192
:104B70000125284670BD0246891E5069801E884264
:104B800001D8002070479378906A01FB0300F9E791
:104B90002DE9F04105460C46022C02D36869A0427B
:104BA00002D80120BDE8F0812878012804D002282D
:104BB0002CD003285AD13DE0274607EB5707286A37
:104BC00000EB57212846FFF759FF00B150E0C7F32B
:104BD000080105F1300010F801807F1C286A00EB05
:104BE00057212846FFF74AFF00B141E0C7F308010B
:104BF00005F13000405C48EA002804F0010010B1E3
:104C00004FEA1810CEE7C8F30B00CBE7286A00EB99
:104C100014212846FFF732FF00B129E040F2FF10CF
:104C200000EA440105F130000E183078717840EA4E
:104C30000120B7E7286A00EBD4112846FFF71EFFD2
:104C400000B115E040F2FF1000EA840105F13000E8
:104C50000E18F0780006B17840EA0140717840EA19
:104C600001203178084320F070409BE7012099E74C
:104C700000BF4FF0FF3095E72DE9F04705460E469F
:104C80001746022E02D36869B04202D84FF00208DC
:104C90008AE02878012804D0022841D003287DD159
:104CA00054E0B14609EB5909286A00EB592128461E
:104CB000FFF7E4FE8046B8F1000F00D071E0C9F3C1
:104CC000080105F130000C1806F0010020B1F9B21E
:104CD000207861F31F1000E03846207009F10109C7
:104CE00001202871286A00EB59212846FFF7C6FEEB
:104CF0008046B8F1000F00D053E0C9F3080105F178
:104D000030000C1806F0010010B1C7F3071005E0E1
:104D1000207800F0F000C7F303210843207040E042
:104D2000286A00EB16212846FFF7A8FE8046B8F156
:104D3000000F00D035E040F2FF1000EA460105F117
:104D400030000C182770380A60702AE0286A00EBDF
:104D5000D6112846FFF792FE8046B8F1000F00D02A
:104D60001FE040F2FF1000EA860105F130000C1848
:104D7000E0780006A17840EA0140617840EA01202D
:104D80002178084300F0704007432770380A6070AC
:104D9000380CA070380EE07003E0FFE74FF0020817
:104DA00000BF00BF012028714046BDE8F0872DE913
:104DB000F04104460E46022E02D36069B04201D88B
:104DC000022727E0002721E031462046FFF7E0FEDA
:104DD000054605B91DE0012D01D1022719E0681C27
:104DE00008B9012715E0002231462046FFF744FFAD
:104DF000074607B10DE02069401C30B12069401C16
:104E00002061607940F0010060712E466069B04217
:104E1000DAD800BF3846BDE8F0812DE9F0470446F6
:104E20008946B9F1000F06D1E76817B16069B84249
:104E300015D8012713E049462046FFF7A9FE06468C
:104E4000022E02D20120BDE8F087701C08B930465E
:104E5000F9E76069B04201D93046F4E74F463D4674
:104E600000BF6D1C6069A84204D80225BD4201D96B
:104E70000020E8E729462046FFF78AFE064606B9E5
:104E800009E0701C08B1012E01D13046DBE7BD42BC
:104E9000E7D10020D7E700BF6FF0704229462046D7
:104EA000FFF7EAFE8046B8F1000F08D1B9F1000F14
:104EB00005D02A4649462046FFF7DEFE8046B8F177
:104EC000000F0BD1E5602069401C78B12069401EBD
:104ED0002061607940F00100607107E0B8F1010FD6
:104EE00002D14FF0FF3000E0012005462846AAE736
:104EF00070B503460D46586A021D680A1E68B678EA
:104F0000B0FBF6F400BF02CA09B9002070BD8C42A4
:104F100000D202E0641A121DF5E700BF10682044B9
:104F2000F4E72DE9F04104460E46E680A568012D20
:104F300003D020684069A84202D80220BDE8F08171
:104F40002DB920680078032801D12068456A45B949
:104F500020680089B04201D80220EFE72068476A44
:104F60001EE0206880784FEA001812E02946206889
:104F7000FFF70EFE0546681C08B90120DEE7022D8A
:104F800003D320684069A84201D80220D6E7A6EBE7
:104F900008064645EAD229462068FFF7ECFD074699
:104FA000E5600FB90220C9E707EB16102061206801
:104FB000303006F00F0100EB411060610020BDE7CA
:104FC0002DE9F04104468846E088461CB0B208B19D
:104FD000206910B90420BDE8F08106F00F00002818
:104FE0006CD12069401C2061E06828B920680089E4
:104FF000B04263D80420EEE720688078401E00EAC3
:10500000161000285AD1E1682068FFF7C1FD054657
:10501000012D01D80220DEE7681C08B90120DAE77B
:1050200020684069A84243D8B8F1000F01D104209C
:10503000D1E7E1682068FFF7F0FE05460DB90720CB
:10504000C9E7012D01D10220C5E7681C08B901207C
:10505000C1E72068FFF7ECFC08B10120BBE721683D
:1050600001F130004FF400720021FFF7BAFC29462D
:105070002068FFF780FD2168C86200270EE001204C
:10508000216808712068FFF7D3FC08B10120A2E76E
:105090002068C06A401C2168C8627F1C2068807834
:1050A000B842ECD82068C06AC01B2168C86200BF43
:1050B000E56029462068FFF75EFD2061E6802068F4
:1050C000303006F00F0100EB41106061002082E7F4
:1050D0002DE9F04104460E4600212046FFF721FF4E
:1050E0000546EDB9002700BF21692068FFF7C6FC1F
:1050F000054605B113E060690078E52802D06069D3
:10510000007820B9781C0746B04201D107E000279B
:1051100001212046FFF754FF0546002DE4D000BFD3
:10512000042D00D107252846BDE8F08110B50246C0
:105130008C7ECB7E44EA03201378032B05D10C7DB3
:105140004B7D44EA032340EA034010BD81760B0AFD
:10515000C3760A0C02750B0E437570472DE9F047B4
:1051600005460C46207820F04000401E00EB8001F0
:1051700001EBC00600274FF0010800BFFE48C05DEC
:10518000205CFD49C95D2144497840EA0129B8F114
:10519000000F10D0484602F0ACFD8046FF2E07D22B
:1051A0003146761C35F8110002F0A3FD404508D0C9
:1051B0000020BDE8F0874FF6FF70814501D0002048
:1051C000F7E7781C07460D28D8D3207800F0400078
:1051D00038B1B8F1000F04D035F8160008B100203E
:1051E000E7E70120E5E7F0B50346087800F03F0067
:1051F000401E00EB800707EBC0020025012600BF20
:10520000DD48405D085CDC4F7F5D0F447F7840EAFD
:1052100007244EB1FF2A01D30020F0BD26461046D8
:10522000521C23F8104005E04FF6FF70844201D075
:105230000020F2E7681C05460D28E1D3087800F04D
:10524000400030B1FF2A01D30020E6E7002023F818
:1052500012000120E1E7F0B504461D464D730F270B
:10526000CF7200270F738F76BC4681F81BC0571E84
:1052700007EB870C0CEBC706002738463B4600BF00
:105280004FF6FF77B84203D03746761C34F8170044
:10529000DFF8E4C21CF803C001F80C000712DFF8C5
:1052A000D8C21CF803C08C448CF8017008B94FF6C2
:1052B000FF705F1C3B460D2FE2D34FF6FF77B842DD
:1052C00002D034F816700FB942F040020A70F0BDF7
:1052D0002DE9FC4707468A4690461E460B2251465A
:1052E0003846FFF771FB052E18D9304610E038F824
:1052F000021B00250AE00A4660F35F0210464910CF
:1053000000F480320AB19D4A50406D1C102DF2D33A
:10531000B8F80020002AEAD1064600BF072500BFE2
:1053200006F00F0000F13009B9F1390F03DD09F182
:10533000070000F0FF0928466D1E0DF800903609A1
:10534000002EEDD17E200DF8050000240BE0385D25
:10535000812807DB385DFE2804DC681EA04200D1EE
:1053600006E0641C641CAC4202D2385D2028EED1F9
:1053700000BF00BF082D04D228466D1C1DF8001088
:1053800000E020212046641C3954082CF2D3BDE8EB
:10539000FC8730B5014600200B2200BF431003EB11
:1053A000C01411F8015B6319D8B2531E1A00F5D16D
:1053B00030BD2DE9F047044600212046FFF7B1FD3E
:1053C000074617B13846BDE8F0874FF0FF09CA46D7
:1053D00000BF21692068FFF751FB074607B154E081
:1053E00065692E780EB904274FE0E87A00F03F088F
:1053F000E52E05D008F0080028B1B8F10F0F02D053
:105400004FF0FF093AE0B8F10F0F1CD1E069A0B3EB
:1054100006F0400030B195F80DA026F04006B146E8
:10542000E08820844E450AD1687B504507D1294643
:10543000E069FFF793FE10B1A9F1010000E0FF2041
:1054400000F0FF091AE0B9F1000F05D12846FFF777
:10545000A0FF504500D118E04FF0FF094FF6FF7054
:105460002084A069C07A00F0010030B90B222846E0
:10547000A169FFF7C0FA00B907E0FFE70021204665
:10548000FFF79EFD0746002FA3D000BF38469AE7DE
:105490002DE9F05F04468A464FF0FF09CB4604270A
:1054A0004EE021692068FFF7E9FA074607B14AE0B4
:1054B000666935780DB9042745E0F07A00F03F08B9
:1054C000E52D09D02E2D07D0B8F1080F01D101200C
:1054D00000E00020504502D04FF0FF0929E0B8F16C
:1054E0000F0F1AD105F0400030B196F80DB025F03D
:1054F0004005A946E08820844D450AD1707B584577
:1055000007D13146E069FFF76EFE10B1A9F1010045
:1055100000E0FF2000F0FF090BE0B9F1000F04D11B
:105520003046FFF736FF584502D04FF6FF70208413
:1055300009E000212046FFF743FD074607B102E0DE
:1055400020690028ADD100BF0FB10020206138468E
:10555000BDE8F09F2DE9FE4F0446D4F81880D4F83A
:105560001C900C2241466846FFF72EFA00BF9DF8BA
:105570000B0000F0010003E0EE81000821100100A3
:1055800020B3002088F80B00E06101260CE03346D0
:105590004A4669464046FFF79BFE2046FFF709FF53
:1055A000054605B102E0761C642EF0D300BF642EE0
:1055B00002D10720BDE8FE8F042D01D02846F9E76F
:1055C0009DF80B0088F80B00C4F81C909DF80B00A8
:1055D00000F0020060B1002600E0761C39F81600E9
:1055E0000028FAD106F119000D21B0FBF1F700E017
:1055F000012739462046FFF76BFD054645BB781E5F
:10560000070025D0E088C11B2046FFF78AFC05462D
:10561000F5B9A069FFF7BDFE824600BF2169206889
:10562000FFF72CFA054605B111E0FAB2534661695D
:10563000E069FFF710FE0120216808710021204673
:10564000FFF7BEFC054615B9781E0700E6D100BF7E
:10565000C5B921692068FFF711FA054695B92022DE
:1056600000216069FFF7BDF90B22D4E90501FFF7BE
:10567000ABF9A069C07A00F01800616908730120D5
:1056800021680871284695E770B50446E688208CA5
:105690004FF6FF72904201D1304600E0208C014667
:1056A0002046FFF73EFC05460DBB00BF2169206880
:1056B000FFF7E4F9054605B115E0202200216069F5
:1056C000FFF78FF9E52061690870012021680871F2
:1056D000E088B04200D306E000212046FFF770FCCE
:1056E0000546002DE2D000BF042D00D1022528463A
:1056F00070BD2DE9F04707460C4604F109063869EC
:10570000002843D07869002526E029466D1C10F852
:105710000180B8F1200F00D11EE0B8F1050F01D1D2
:105720004FF0E508092D02D12E2106F8011BB8F132
:10573000410F0EDBB8F15A0F0BDC017B092D01D3B1
:10574000102200E00822114019B108F1200101F0F7
:10575000FF0806F8018B00BF0B2DD6D3C17A21724A
:10576000C17F0A06817F42EA0142417F42EA01216C
:10577000027F11432160027E417E42EA0121A18025
:10578000827DC17D42EA0121E18000BF00203070AE
:10579000A06990B30025A669386958B3E06948B399
:1057A000388C4FF6FF71884224D0D7F81CA01BE03C
:1057B0000021484602F054FA8146B9F1000F01D1A8
:1057C000002516E0B9F1FF0F04DD4FEA2922284633
:1057D0006D1C3254E069401EA84201D8002508E043
:1057E00028466D1C06F800903AF8021B5FEA010992
:1057F000DED100BF0020705500BFBDE8F0872DE965
:10580000F34F83B0814604980068019002E001984C
:10581000401C0190019800782F28F8D0019800785A
:105820005C28F4D0D9F81CA000252F4600BF3846CC
:105830007F1C01990C5C202C03DB2F2C01D05C2CED
:1058400000D132E0FF2D03D3062005B0BDE8F08F74
:10585000E4B2812C13DBE0B2FE2810DC38467F1C5A
:1058600001990E5C402E01DB7E2E05DD802E01DBD2
:10587000FE2E01DD0620E8E706EB042084B20121BC
:10588000204602F0EDF904460CB90620DDE7802C35
:1058900006DA2146F9A0FFF7C1F808B10620D4E7DF
:1058A00028466D1C2AF81040C1E700BF0198C119B5
:1058B00004980160202C01DA042000E000208046DA
:1058C00008E0681E3AF81040202C02D02E2C00D0A0
:1058D00002E06D1E002DF4D100BF0DB90620B4E723
:1058E00000202AF815000B222021D9F81800FFF714
:1058F00078F8002700E07F1C3AF817002028FAD03B
:105900003AF817002E28F6D00FB148F0030800E04F
:105910006D1E25B1681E3AF810002E28F8D100201F
:10592000064602904FF0080B00BF38467F1C3AF83D
:10593000104004B963E0202C03D02E2C04D1AF42D8
:1059400002D048F00308F0E70298584501D2AF4270
:1059500014D1BBF10B0F02D148F003084FE0AF4266
:1059600001D048F00308AF4200D948E02F46082094
:1059700002904FF00B0BB006060ED6E7802C09DB29
:10598000204602F0B6F90021009002F069F90446C1
:1059900048F00208FF2C11DDABF1010002998842AA
:1059A00004D848F00308CDF808B0BEE72212D9F8B1
:1059B00018300298411C02911A5419E024B1214672
:1059C000B1A0FFF72BF818B15F2448F003080FE0EF
:1059D000412C04DB5A2C02DC46F0020608E0612C64
:1059E00006DB7A2C04DC46F00106A4F1200084B228
:1059F000D9F818300298411C02911C5495E700BF59
:105A0000D9F818000078E52803D10520D9F8181036
:105A10000870BBF1080F01D1B006060E06F00C00AD
:105A20000C2803D006F00300032801D148F0020837
:105A300008F0020058B906F00300012801D148F02F
:105A4000100806F00C00042801D148F00808D9F825
:105A5000180080F80B800020F7E62DE9F34104469A
:105A6000019800782F2803D0019800785C2802D193
:105A70000198401C01900020A06001980078202827
:105A800007D200212046FFF74CFA0546002060614E
:105A900028E000BF01A92046FFF7B1FE054605B189
:105AA0001FE02046FFF785FC0546A069C67A3DB198
:105AB000042D04D100BF06F0040000B9052510E054
:105AC00006F0040000B10CE06769F87A00F01000FD
:105AD00008B9052505E039462068FFF727FBA060D7
