:020000040800F2
:10000000E8A10020051A0008510200085302000868
:10001000570200085B0200085F02000800000000B1
:100020000000000000000000000000006302000863
:10003000650200080000000067020008690200086D
:100040001F1A00081F1A00081F1A00081F1A0008AC
:100050001F1A00081F1A00081F1A00081F1A00089C
:100060001F1A00081F1A00081F1A00081F1A00088C
:100070001F1A00081F1A00081F1A00081F1A00087C
:100080001F1A00081F1A00081F1A00081F1A00086C
:100090001F1A00081F1A00081F1A00081F1A00085C
:1000A0001F1A00081F1A00081F1A00081F1A00084C
:1000B0001F1A00081F1A00081F1A00081F1A00083C
:1000C0001F1A00081F1A00081F1A00081F1A00082C
:1000D0001F1A00087B190008D50B00081F1A00081A
:1000E0001F1A00081F1A00081F1A00081F1A00080C
:1000F0001F1A00081F1A00081F1A00081F1A0008FC
:100100001F1A00081F1A00081F1A00081F1A0008EB
:100110001F1A00081F1A00088D0A00081F1A00087D
:100120001F1A00081F1A00081F1A00081F1A0008CB
:10013000DFF80CD003F02CFB004800474501000815
:10014000E8A100204FF4A06002F0F2F901F09CFA5F
:100150004FF4E13001F0C5FB00F0F4FC00F076F95B
:1001600003F079F900F072F900F08CF900F028FA48
:1001700000F079FAC82001F0C4FA13A20121084660
:1001800000F0D1FB15A20121032000F0CCFB00F010
:10019000D5FD17A003F0E6FC1CA21DA11FA000F0D6
:1001A00015FE0FE04FF4FA7001F0ABFA1E4800683C
:1001B00008B9012000E000201B4908601BA123486A
:1001C00001F00CFBEEE70000574946492052464932
:1001D00044205A6967626565000000005749464936
:1001E0002074657374696E672E2E2E2E0000000039
:1001F0004553503832363620696E69742066696E10
:10020000697368656420210D0A0000003300000056
:1002100033343536373839300000000056696465AC
:100220006F53747265616D00AC81214274686973AB
:1002300020737472696E67206F75742066726F6DBB
:10024000207561727431200D0A00000000380140F1
:10025000704700BFFEE700BFFEE700BFFEE700BF3C
:10026000FEE7704770477047704700000CB50020EC
:10027000019000906C48006840F480306A49086042
:1002800000BF6948006800F4003000900198401CED
:100290000190009818B90198B0F5A06FF1D16248AB
:1002A000006800F4003010B10120009001E000204F
:1002B00000900098012843D15C48006840F010008D
:1002C0005A4908600846006820F0030008600846A4
:1002D000006840F002000860534840685249486096
:1002E0000846406848600846406840F480604860BE
:1002F0000846406820F47C1048600846406840F496
:10030000E81048600846006840F08070086000BF50
:100310004548006800F000700028F9D04248406865
:1003200020F00300404948600846406840F0020061
:10033000486000BF3C48406800F00C000828F9D134
:100340000CBD10B5FFF792FF10BD10B53648006820
:1003500040F00100344908600846406834490840CC
:100360003149486008460068324908402E49086013
:100370000846006820F4802008600846406820F4A1
:10038000FE0048604FF41F008860FFF7DAFF4FF06F
:1003900000602949086010BD10B50021002000222E
:1003A000214B5B6803F00C0121B1042906D0082918
:1003B00028D107E0214B224C236027E01F4B204C23
:1003C000236023E0184B5B6803F47010164B5B68E6
:1003D00003F48032022303EB904022B9194B4343CC
:1003E000174C23600DE0104B5B6803F4003323B11E
:1003F000144B4343124C236003E0104B4343104C17
:10040000236003E00D4B0E4C236000BF00BF064B82
:100410005B68C3F303130C4CE15C094B1B68CB40D6
:10042000074C236010BD0000001002400020024075
:100430000000FFF8FFFFF6FE08ED00E000127A0072
:100440000000002000093D000400002008B5012143
:10045000082001F005FE4FF4C050ADF80000102058
:100460008DF8030003208DF802006946044801F06E
:100470003BFB4FF4C051024801F0E3FB08BD000014
:10048000000C014008B54CF2503001F016F9012182
:10049000082001F0E5FD0121084601F0E1FD012100
:1004A000F74801F0F2FB0121102001F0D9FD5B209B
:1004B000ADF8000010208DF8030003208DF8020035
:1004C0006946F04801F010FB3020ADF80000102024
:1004D0008DF8030003208DF802006946EA4801F018
:1004E00003FB2020ADF8000048208DF80300032016
:1004F0008DF802006946E34801F0F6FA08BD0021D4
:1005000005E0002200E0521C6E2AFCDB491C8142FF
:10051000F7DB704770B504462021DB4801F093FB00
:100520000121D84801F08FFB002517E00821D548AC
:1005300001F089FB04F0800020B10221D14801F0D4
:1005400080FB03E00221CF4801F07DFB0821CD486C
:1005500001F077FB60000446681CC5B2082DE5DB9E
:100560002021C94801F06DFB70BD70B50446202103
:10057000C54801F068FB0121C24801F062FB00257B
:1005800017E00821BF4801F05EFB04F0800020B1B5
:100590000221BC4801F055FB03E00221B94801F0FB
:1005A00052FB0821B74801F04CFB60000446681C70
:1005B000C5B2082DE5DB2021B34801F042FB70BD38
:1005C00010B50221B14801F03EFB6420FFF797FF10
:1005D0000221AE4801F035FB6420FFF790FFE220D6
:1005E000FFF798FF0520FFF78AFF2C20FFF792FF07
:1005F0003220FFF784FF2E20FFF78CFF3220FFF719
:100600007EFF2F20FFF786FF0520FFF778FF2320CE
:10061000FFF780FF8120FFF77DFF2820FFF77AFF9B
:10062000A220FFF777FFC820FFF774FFA020FFF795
:1006300071FF4020FFF76EFFAF20FFF76BFF10BD8B
:1006400070B505460C46641E05F1AF00FFF762FF6A
:10065000C4F3031101F11000FFF75CFF04F00F0079
:10066000FFF758FF70BD70B5002414E004F1B0002E
:10067000FFF750FF1020FFF74DFF0020FFF74AFF64
:10068000002504E00020FFF770FF681CC5B2842D30
:10069000F8DB601CC4B2092CE8DB70BD70B5044601
:1006A00000250DE00121681CFFF7CAFF002604E0C9
:1006B0002078FFF75AFF641C761C802EF8D36D1C3F
:1006C000082DEFD370BD2DE9F0410646884614464B
:1006D00000250DE070194146FFF7B2FF002704E046
:1006E0002078FFF742FF641C7F1C102FF8D36D1C8D
:1006F000022DEFD3BDE8F0812DE9F0410646884692
:10070000144600250DE070194146FFF799FF0027B8
:1007100004E02078FFF729FF641C7F1C082FF8D322
:100720006D1C022DEFD3BDE8F0812DE9F0410646A6
:100730000F46144639463046FFF782FF002504E095
:100740002078FFF712FF641C6D1C062DF8D3BDE85E
:10075000F08170B5044600251DE01021494801F0E4
:1007600072FA0A2000F0A9FF04F0800020B14021B5
:10077000444801F066FA03E04021424801F063FA80
:100780006006040E10213F4801F05BFA0A2000F0D9
:1007900094FF681CC5B2082DDFDB70BD70B5002466
:1007A000002518E02021374801F04BFA1021354888
:1007B00001F049FA6006040E2021324801F027FAC0
:1007C00010B1601CC4B200E0E4B210212D4801F069
:1007D00038FA681CC5B2082DE4DB204670BD2DE94F
:1007E000F04704460E4617461021274801F02BFA21
:1007F0000320FFF7AEFFC4F30740FFF7AAFFC4F3DF
:100800000720FFF7A6FFE0B2FFF7A3FF002515E0E2
:1008100070193946FFF714FF4FF0000809E0FFF7A1
:10082000BDFF81464846FFF7A0FE08F1010000F039
:10083000FF08B8F1100FF2DB681CC5B2022DE7DB30
:100840001021114801F0FDF9BDE8F0872DE9F047CE
:1008500004460E46174610210B4801F0F4F9032018
:10086000FFF777FFC4F30740FFF773FFC4F30720D8
:10087000FFF76FFFE0B2FFF76CFF00251EE00000FE
:1008800000023000000C014000100140001C01403B
:1008900070193946FFF7D4FE4FF0000809E0FFF762
:1008A0007DFF81464846FFF760FE08F1010000F039
:1008B000FF08B8F1080FF2DB681CC5B2022DE7DBB8
:1008C00010216E4801F0BDF9BDE8F0872DE9F04137
:1008D00004460D4616461021684801F0B4F903207D
:1008E000FFF737FFC4F30740FFF733FFC4F30720D8
:1008F000FFF72FFFE0B2FFF72CFF31462846FFF746
:100900009FFE002707E0FFF749FF80464046FFF7BC
:100910002CFE781CC7B2052FF5DB1021574801F0DB
:1009200090F9BDE8F0812DE9F04107460E461546E5
:10093000002470E0285DB02824DB285DF72821DC46
:10094000601C285CA1281DDB285DB0385E2148436F
:100950004B490860601C285C00F2AD20096808441F
:100960004749086008460068400108603246394639
:1009700043480068FFF733FFA01CC4B206F1100023
:10098000C6B248E0285DA12823DB285DA32820DC2F
:10099000601C285CA1281CDB285DA1385E2148432F
:1009A00037490860601C285CA1380968084434494C
:1009B0000860084600684001086032463946304801
:1009C0000068FFF70CFFA01CC4B206F11000C6B20D
:1009D00021E0285D20281CDB285D7E2819DC285DAD
:1009E000203827490860084600680001086008466A
:1009F00000682449084422490860324639462048A4
:100A00000068FFF723FF601CC4B206F10800C6B2FD
:100A100001E0601CC4B2285D00288BDCBDE8F081D9
:100A20002DE9F04107460E461546002420E0285DDA
:100A300020281BDB285D7E2818DC285D2038104923
:100A4000086008460068C0000860084600680E4953
:100A500008440B4908603246394609480068FFF7E8
:100A600035FF601CC4B2B01DC6B201E0601CC4B248
:100A7000285D0028DBDCBDE8F081000000100140AB
:100A80001400002080CF0300C0BF030010B5012177
:100A90001E4802F0B4FC38B11D4801781DA003F0D7
:100AA00061F800201A4908700121184802F0B8FCCA
:100AB00010BD7FB505460C460121102001F0DDFA7E
:100AC000ADF80850ADF804400020ADF80A00ADF8CC
:100AD000060001A90D4801F06DFE012241210B48DD
:100AE00002F0DFF90121094802F0C0F936208DF843
:100AF000000001208DF8010003208DF80200012084
:100B00008DF80300684601F018FD7FBD001000401D
:100B1000180000206672616D653A25646670730D79
:100B20000A00000008B526208DF8000003208DF88B
:100B300001008DF8020001208DF80300684601F0E5
:100B4000FCFC08BD00B585B0FFF7ECFF01210420D7
:100B500001F086FA0121480401F08FFA0420ADF873
:100B6000100018208DF8130003208DF8120004A93E
:100B7000384800F0B9FF0820ADF8100004208DF8C7
:100B8000130004A9334800F0AFFF4FF4E1300090A8
:100B90000020ADF80400ADF80600ADF80800ADF88F
:100BA0000C000C20ADF80A0069462B4801F0FFFA52
:100BB000012240F22551284801F091FB012240F228
:100BC0002441254801F08BFB0121234801F07BFBE8
:100BD00005B000BD10B540F225511F4801F064FC7E
:100BE000D8B11D4801F0E0FBC4B21C48B0F80008C1
:100BF000C0F30E0040F2FF7188420EDA1749B1F8D7
:100C00000018C1F30E00411C144AB2F8002861F329
:100C10000E021249A1F800280C5440F224410E485B
:100C200001F042FC012814D108210B4801F033FCEB
:100C3000094801F0B9FB0948B0F8000820F4004069
:100C400000F500400549A1F80008034801F0ACFB9D
:100C5000C4B210BD00080140004400405C00002008
:100C600010B50446012C04D10121FC4800F0E9FF35
:100C700003E00121F94800F0E6FF10BD10B50221A4
:100C8000F64800F0E0FF4FF4FA7000F03AFD022160
:100C9000F24800F0D6FF10BD2DE9F04106460C46A3
:100CA00015461F46EE48B0F800086FF30E00EC49F9
:100CB000A1F800083246EBA1EC4800F08FFD1CB90A
:100CC00015B90120BDE8F081B8B200F01AFD00208E
:100CD000E349B1F80018C1F30E01E14A5054E4A110
:100CE000E44800F07BFDB4B1ADB12146DC4802F030
:100CF0007DFC08B1012000E0002040B92946D84819
:100D000002F074FC08B1012000E0002008B10120CD
:100D1000D8E70020D6E744B12146D14802F066FC6E
:100D200008B10120CEE70020CCE72946CC4802F0EC
:100D30005DFC08B10120C5E70020C3E710B5022122
:100D4000C64800F07EFF40F2DC5000F0DAFC00BF45
:100D5000C8230022C8A1C9A0FFF79EFF0028F7D032
:100D600010BD10B5044624B1012C0AD0022C18D1B4
:100D70000FE040F6C413C2A2BFA1C4A0FFF78CFFCE
:100D800010BD40F6C413BEA2BBA1C3A0FFF784FFF1
:100D9000F6E740F6C413BAA2B7A1C2A0FFF77CFFE2
:100DA000EEE70020ECE730B59FB004460D462B4639
:100DB0002246BFA101A802F0E5FE41F65833002209
:100DC000ADA101A8FFF768FF1FB030BD70B5A0B09E
:100DD00004460D4616462B462246BAA102A80096A6
:100DE00002F0D0FE4FF47A730022A3A102A8FFF70D
:100DF00053FF20B070BD10B586B004460CB1012081
:100E000000E000200246B5A101A802F0BBFE4FF4AD
:100E1000FA73002298A101A8FFF73EFF06B010BDAB
:100E2000F0B5B9B006460F4614461D46642120A809
:100E300002F0D1FB16B1012E10D107E03B46ABA268
:100E4000ABA120A8009402F09DFE08E03B46ACA2B6
:100E5000A7A120A8009402F095FE00E000BF00BF0B
:100E6000052D06DA20AB2A46A6A102A802F08AFECA
:100E700004E020AAA8A102A802F084FE4FF4FA73AD
:100E8000A9A27DA102A8FFF707FF39B0F0BD70B598
:100E9000BCB004460D461646FCB12B460122A6A165
:100EA0001EA802F06FFE3246A8A1684602F06AFE54
:100EB0004FF4FA73002270A11EA8FFF7EDFE50B1A7
:100EC0004FF4FA7300226CA16846FFF7E5FE10B1FB
:100ED00001203CB070BD0020FBE72B46002296A10C
:100EE0001EA802F04FFE4FF4FA73002262A11EA862
:100EF000FFF7D2FEEDE710B54FF4FA7300225EA1C2
:100F000096A0FFF7C9FE48B14FF4FA7397A298A1D3
:100F100098A0FFF7C1FE08B1012010BD0020FCE73A
:100F20002DE9F04186B007460C4615461E464FF0A7
:100F300000082FB122464EA14C4800F04FFC1CE0A7
:100F4000052E06DAAB1C32468DA101A802F01AFE6E
:100F500004E0AA1C8FA101A802F014FE4FF47A73DA
:100F6000002290A101A8FFF797FE4FF47A730022A8
:100F70008DA12046FFF790FE8046404606B0BDE8B2
:100F8000F08170B5044600253548B0F800086FF3CD
:100F90000E003349A1F800080846B0F8000820F414
:100FA0000040A1F8000800BF2D48B0F80008C00BB1
:100FB0000028F9D000202A49B1F80018C1F30E0129
:100FC000274A505434B169A1104602F00FFB38B1E2
:100FD000234D05E076A1224802F008FB00B1204D28
:100FE000284670BD70B59CB0642103A802F0F3FAE6
:100FF00000260120FFF734FEFFF7A0FE0020FFF7D8
:10100000B0FE41F2883300221BA16BA0FFF744FE23
:1010100000BF6C49174800F0E1FB03A914A002F0DF
:1010200019FB69A1134800F0D9FB03AD002606E0C7
:101030003046711CCEB201A941F82040002567A1BD
:10104000284602F0E5FA0400F2D1DDE90101FFF7DC
:10105000AAFE0028DDD01CB070BD000000080140D1
:101060005C00002025730D0A0000000000440040D1
:1010700025730000003801404F4B00004154000030
:101080006E6F206368616E676500000041542B43FA
:10109000574D4F44453D310041542B43574D4F442C
:1010A000453D320041542B43574D4F44453D33009D
:1010B00041542B43574A41503D222573222C22256F
:1010C0007322000041542B43575341503D22257356
:1010D000222C222573222C312C25730041542B43C2
:1010E00049504D55583D25640000000054435000C0
:1010F000222573222C222573222C25730000000048
:101100005544500041542B43495053544152543D8F
:1011100025642C257300000041542B43495053543F
:101120004152543D25730000414C524541592043E2
:101130004F4E4E454354000041542B4349505345B4
:10114000525645523D25642C2573000041542B43D3
:10115000495053544F3D25730000000041542B4328
:1011600049504D4F44453D31000000003E00000015
:101170000D0A000041542B43495053454E44000092
:1011800041542B43495053454E443D25642C25641E
:101190000000000041542B43495053454E443D2527
:1011A000640000003E20000053454E44204F4B0099
:1011B0002B4950440000000041542B43574C4150F0
:1011C00000000000D03D00080D0AC9D4B5C8C6AC67
:1011D000BFCC20A1ADA1AD0D0A0000002C00000085
:1011E00070B54FF4FA730022AFF27411B7A0FFF795
:1011F00053FD4FF47A7000F084FA00BFB648B0F89F
:1012000000086FF30E00B449A1F80008002404E0C0
:101210000020B1490855601C84B2B4F5006FF7DBBB
:10122000AEA2AFF2C011B74800F0D8FA4FF47A700E
:1012300000F067FA0020A849B1F80018C1F30E01C8
:10124000A54A5054AFF2D811AF4800F0C7FAAFF238
:10125000D811A14802F0CAF908B1012600E0002621
:10126000AFF23C119C4802F0C1F908B1012000E046
:10127000002046EA0005A5A1974802F0B7F908B199
:10128000012000E0002000B10025002DB6D04FF471
:10129000FA730022AFF22021AFF24010FFF7FCFCFE
:1012A0004FF4FA73AFF23C12AFF23C11AFF23C10C4
:1012B000FFF7F2FC0523002296A10120FFF730FE84
:1012C00005230022A0A10120FFF72AFE052300220A
:1012D000A4A10120FFF724FE05230022A6A10120DE
:1012E000FFF71EFE052300229DA10120FFF718FE37
:1012F0007948B0F800086FF30E007749A1F80008AC
:101300004FF4966000F0FDF900207349B1F8001821
:10131000C1F30E01704A5054AFF2AC217A4800F08C
:101320005DFA70BD70B59AB00546642101A802F05F
:1013300052F9012D02D0022D0CD105E093A29EA1FD
:1013400001A802F01FFC06E0A7A29BA101A802F0E1
:1013500019FC00E000BF00BF4FF4FA730022AFF2A7
:10136000E8215AA0FFF798FC4FF4FA7000F0C9F991
:1013700000BF5948B0F800086FF30E005649A1F8B5
:101380000008002404E0002053490855601C84B282
:10139000B4F5806FF7DB9FA2AFF23831594800F007
:1013A0001DFA4FF47A7000F0ACF900204A49B1F808
:1013B0000018C1F30E01484A5054AFF24C31524864
:1013C00000F00CFAAFF25031434802F00FF908B1C7
:1013D000012000E0002048B9AFF2B4213E4802F0FD
:1013E00005F908B1012000E0002008B1012000E06B
:1013F0000020064645A1384802F0F8F808B101205F
:1014000000E0002000B10026002EB2D04FF4FA73A5
:101410000022AFF29C31AFF2BC20FFF73DFC4FF44D
:10142000FA73AFF2B8224EA1AFF2B820FFF734FC46
:101430000523002201A90120FFF772FD05230022E8
:101440007EA10120FFF76CFD0523002245A10120AC
:10145000FFF766FD052300227FA10120FFF760FD55
:101460000523002244A10120FFF75AFD0523002295
:101470003BA10120FFF754FD1748B0F800086FF3B7
:101480000E001549A1F8000840F6B83000F039F90F
:1014900000201149B1F80018C1F30E010E4A505452
:1014A000AFF23441184800F099F92DA1164800F028
:1014B00095F9AFF23C41084802F098F818B16CA1D8
:1014C000114800F08BF91AB070BD000041542B4355
:1014D00049504D55583D30005C00002041542B438D
:1014E000495053544152543D22544350222C2231EE
:1014F00039322E3136382E3139312E32222C3830D5
:101500003830000000440040003801404552524F3E
:1015100052000000474554202F4C69627261727975
:10152000536561745365727665722F736561744992
:101530006E666F3F726F6F6D3D3120485454502F6F
:10154000312E310D0A000000486F73743A20313992
:10155000322E3136382E3139312E323A3830383059
:101560000D0A0000557365722D4167656E743A204F
:101570006162630D0A000000436F6E6E65637469FB
:101580006F6E3A20636C6F73650D0A007573723D60
:101590006A756E652670617373776F72643D313959
:1015A000393230323131267265715F747970653D40
:1015B0005357495045000000474554202F4C69625D
:1015C00072617279536561745365727665722F75B5
:1015D0007372496E666F3F257320485454502F3103
:1015E0002E310D0A000000007573723D736F6C613F
:1015F000722670617373776F72643D31393932309E
:10160000323131267265715F747970653D53574987
:101610005045000041542B43495053544152543DCE
:1016200022544350222C223139322E3136382E3179
:1016300039312E33222C383038300000486F737423
:101640003A203139322E3136382E3139312E333A73
:10165000383038300D0A0000436F6E74656E742D9B
:101660004C656E6774683A2033380D0A000000003C
:101670006C6F6720696E207375636365737366753D
:101680006C6C790D0A00000010B56FF0040000F0DA
:101690009EFF2E4800682E49B0FBF1F02D490870DE
:1016A0000846007800EB4001C1EBC0104FF6FF7117
:1016B00001EAC0002849088010BD0146254A127879
:1016C0004A434FF0E0235A6100229A611A46126998
:1016D00042F001021A6100BF4FF0E022106900F0F1
:1016E00001021AB100F48032002AF5D04FF0E02256
:1016F000126922F001024FF0E0231A6100229A6180
:1017000070470146144A12884A434FF0E0235A6159
:1017100000229A611A46126942F001021A6100BF62
:101720004FF0E022106900F001021AB100F480329B
:10173000002AF5D04FF0E022126922F001024FF0AA
:10174000E0231A6100229A61704700000000002027
:1017500000127A001A0000201C000020014600BF81
:10176000704700BFA34A128802F04002002AF9D055
:10177000C2B2A04B1B1D1A807047F0B503460D4640
:101780001646002729460A2E03D000200870284656
:10179000F0BD33B9302001F8010B00200870284655
:1017A000F6E7002B03DA2D2001F8010B5B4242F231
:1017B00010720DE093FBF2F404B937B104F130007C
:1017C00001F8010B04FB123301270A2092FBF0F20F
:1017D000002AEFDC002008702846D9E70FB470B566
:1017E00086B006460CA8019073E00B9800785C2840
:1017F0001CD10B98401C0B9000786E2809D07228E1
:101800000FD10D21304600F0CBFD0B98401C0B9002
:101810000BE00A21304600F0C3FD0B98401C0B90F2
:1018200003E00B98401C0B9000BF4BE00B98007836
:10183000252840D10B98401C0B900078642818D0C4
:10184000732833D1019810C801900BE021783046FD
:1018500000F0A6FD00BF8021304600F00FFE0028FA
:10186000F9D0641C20780028F0D10B98401C0B9014
:1018700020E0019820C801900A2202A92846FFF71B
:101880007CFF02AC0BE02178304600F089FD00BF00
:101890008021304600F0F2FD0028F9D0641C207849
:1018A0000028F0D10B98401C0B9003E00B98401CD3
:1018B0000B9000BF06E00B9810F8011B0B90304610
:1018C00000F06EFD00BF8021304600F0D7FD0028FB
:1018D000F9D00B980078002887D106B070BC5DF86D
:1018E00014FB10B586B00446012144F2040000F058
:1018F000B7FB4FF40070ADF8140003208DF816000C
:1019000018208DF8170005A93B4800F0EDF84FF4BA
:101910008060ADF8140004208DF8170005A9364842
:1019200000F0E2F825208DF8000000208DF801007D
:101930008DF8020001208DF80300684600F0FDFDDF
:1019400001940020ADF80800ADF80A00ADF80C00D5
:10195000ADF810000C20ADF80E0001A9254800F0EC
:1019600026FC012240F22551224800F0B8FC01215A
:10197000204800F0A8FC06B010BD10B540F225517B
:101980001C4800F091FD10B31A4800F00DFDC4B2E0
:101990001A48008800F40040C8B91848008800F4CC
:1019A000804060B10A2C03D000201449088020E058
:1019B0001248008840F400401049088019E00D2CBE
:1019C00006D10E48008840F480400C49088010E0A1
:1019D0000A480088C0F30D0009490C5407480088E4
:1019E000401C0649088008460088C72801DD002001
:1019F000088010BD0038014000080140240000208C
:101A00005E0800200648804706480047FEE7FEE7DC
:101A1000FEE7FEE7FEE7FEE7FEE7FEE7FEE7FEE79E
:101A20004B0300083101000810B50446CC4884423D
:101A300008D10121042000F02DFB0021042000F03A
:101A400029FB46E0C748844208D10121082000F064
:101A500021FB0021082000F01DFB3AE0C24884422F
:101A600008D10121102000F015FB0021102000F00A
:101A700011FB2EE0BD48844208D10121202000F056
:101A800009FB0021202000F005FB22E0B848844239
:101A900008D10121402000F0FDFA0021402000F093
:101AA000F9FA16E0B348844208D10121802000F001
:101AB000F1FA0021802000F0EDFA0AE0AE488442FD
:101AC00007D10121801500F0E5FA0021A01500F0F2
:101AD000E1FA10BD10B50121084600F0DBFA002143
:101AE000012000F0D7FA10BD2DE9F0410246002593
:101AF0000026002000230024002791F803C00CF0EA
:101B00000F0591F803C00CF0100CBCF1000F03D0CE
:101B100091F802C04CEA050591F800C0BCF1000F35
:101B200031D0146800202BE04FF0010C0CFA00F3C8
:101B3000B1F800C00CEA03069E4220D183004FF0AA
:101B40000F0C0CFA03F7BC4305FA03FC4CEA04043F
:101B500091F803C0BCF1280F06D14FF0010C0CFA2C
:101B600000FCC2F814C00AE091F803C0BCF1480FB1
:101B700005D14FF0010C0CFA00FCC2F810C0401C5B
:101B80000828D1D31460B1F800C0BCF1FF0F34DDD8
:101B9000546800202EE000F1080C4FF0010808FA0C
:101BA0000CF3B1F800C00CEA03069E4221D1830079
:101BB0004FF00F0C0CFA03F7BC4305FA03FC4CEA98
:101BC000040491F803C0BCF1280F05D100F1080C02
:101BD00008FA0CF8C2F8148091F803C0BCF1480F61
:101BE00007D100F1080C4FF0010808FA0CF8C2F810
:101BF0001080401C0828CED35460BDE8F0814FF619
:101C0000FF710180022181700421C170704702467A
:101C1000002093680B400BB1012000E000207047CA
:101C20000146886880B2704702460020D3680B40A6
:101C30000BB1012000E0002070470146C86880B267
:101C4000704701617047416170470AB1016100E06E
:101C500041617047C16070474FF480320A4382612E
:101C60008161826182698269704702460020434B2C
:101C700018684FF68073184040EA021008433F4B43
:101C8000186070473E49C8617047F0B50A460023A6
:101C900000240021002500F00046B6F1004F02D1DB
:101CA000364EF16901E0354E7168C0F3034583B2E9
:101CB00000F44016B6F5401F08D121F070612F4E98
:101CC000766826F070662D4F7E6012E000F4801674
:101CD000B6F5801F06D1032606FA05F4A14341F0AC
:101CE000706106E0460D360103FA06F6B14341F095
:101CF000706122B1460D360103FA06F6314300F059
:101D00000046B6F1004F02D11C4EF16101E01B4EBE
:101D10007160F0BD30B500228B071C0F0F2303FA52
:101D200004F2164B08338C1053F824309343134CB1
:101D300008348D1044F8253023468C1053F8243095
:101D40008C07240F00FA04F423430C4C08348D1044
:101D500044F8253030BD0A49DC3108607047000086
:101D600000080140000C0140001001400014014037
:101D700000180140001C014000200140000001400B
:101D800000002042DF48006840F00100DD490860A3
:101D900008464068DC490840DA494860084600685F
:101DA000DA490840D74908600846006820F48020D6
:101DB00008600846406820F4FE0048604FF41F00A9
:101DC00088607047CF49096821F48031CD4A11609D
:101DD0001146096821F480211160B0F5803F03D0DD
:101DE000B0F5802F0ED106E0C649096841F4803174
:101DF000C44A116007E0C349096841F4A021C14AFF
:101E0000116000E000BF00BF704710B5014600221E
:101E1000002300204A11012A02D1BA4C236806E0AF
:101E2000022A02D1B74C236A01E0B64C636A01F082
:101E30001F02012494401C400CB1012000E000204E
:101E400010BD38B5002000900024002500BF3120CF
:101E5000FFF7DBFF05460098401C00900098B0F5A6
:101E6000A06F01D0002DF2D03120FFF7CEFF08B1D6
:101E7000012400E00024204638BD01460020A14A8C
:101E8000106820F0F80040EAC10010607047A049D7
:101E900008607047024600209A4B586820F47C1076
:101EA00042EA01031843974B586070479849086607
:101EB000704701460020934A506820F00300084311
:101EC000506070478F48406800F00C007047014632
:101ED00000208C4A506820F0F000084350607047A2
:101EE00001460020874A506820F4E06008435060B3
:101EF000704701460020834A506820F4605040EA51
:101F0000C1005060704729B17E4A527A02437D4B2E
:101F10005A7204E07B4A527A82437A4B5A72704773
:101F20007B49D8310860704701460020754A5068E7
:101F300020F440400843506070470021714A20322D
:101F40001170704A82F82010012802D004280AD1AA
:101F500004E001216B4A2032117005E00521694A35
:101F60002032117000E000BF00BF7047694908606F
:101F700070476449096A0143624A116270476549C2
:101F800044390860704730B5002100220024002346
:101F90005C4D6D6805F00C0121B1042905D00829BC
:101FA00023D105E05C4D056022E05B4D05601FE03C
:101FB000544D6D6805F47012524D6D6805F480340F
:101FC000022505EB92421CB9544D554305600BE0C8
:101FD0004C4D6D6805F400351DB1504D55430560FD
:101FE00002E04D4D5543056002E04B4D056000BFDA
:101FF00000BF444D6D6805F0F0010909484D6B5C68
:102000000568DD4045603F4D6D6805F4E061090AF3
:10201000434D6B5C4568DD4085603A4D6D6805F465
:102020006051C90A3E4D6B5C4568DD40C560354D69
:102030006D6805F44041890B3A4D6B5CC568B5FB92
:10204000F3F5056130BD29B12E4A526902432D4B8B
:102050005A6104E02B4A526982432A4B5A61704705
:1020600029B1284A92690243264B9A6104E0254A25
:1020700092698243234B9A61704729B1214AD26900
:102080000243204BDA6104E01E4AD26982431D4BB1
:10209000DA61704729B11B4AD2680243194BDA60F2
:1020A00004E0184AD2688243164BDA60704729B1BF
:1020B000144A12690243134B1A6104E0114A12696F
:1020C0008243104B1A6170471249403908607047CB
:1020D0000F49C86470470B49C87170470948406A86
:1020E00040F0807007494862704701460020054A69
:1020F00092680A400AB1012000E0002070470149BF
:1021000088727047001002400000FFF8FFFFF6FEE3
:10211000000042428004424200127A0000093D0061
:10212000260000203600002010B50446FB488442FB
:1021300009D101218803FFF7ADFF00214FF4804052
:10214000FFF7A8FF32E0F648844209D10121480494
:10215000FFF7ADFF00214FF40030FFF7A8FF25E0A7
:10216000F048844209D101218804FFF7A0FF002133
:102170004FF48020FFF79BFF18E0EB48844209D121
:102180000121C804FFF793FF00214FF40020FFF75F
:102190008EFF0BE0E548844208D101210805FFF7D6
:1021A00086FF00214FF48010FFF781FF10BD2DE95D
:1021B000F04786B005460E460024A24600BFA14661
:1021C0000027B08900B100BF2F462C8A4CF6FF7063
:1021D0000440F08804432C82AC894EF6F31004408E
:1021E000B08831890843718908430443AC81AC8AC3
:1021F0004FF6FF400440B0890443AC8201A8FFF7CA
:10220000C2FEC648874202D1DDF810A001E0DDF829
:102210000CA0A88900F4004040B10AEBCA0000EB12
:102220000A1031684900B0FBF1F807E00AEBCA0078
:1022300000EB0A1031688900B0FBF1F86420B8FBAC
:10224000F0F004012009642101FB1089A88900F441
:10225000004040B1322000EBC900B0FBF1F000F0CB
:102260000700044308E0322000EB09106421B0FBB2
:10227000F1F000F00F0004432C8106B0BDE8F087B8
:102280004FF41651016000218180C18001810C2131
:10229000418100218181704710B502460020108ADB
:1022A0004FF2FF0318400B884C8823438C8823434C
:1022B000CC8823431843108210BD00210180418047
:1022C0008180C180704721B1828942F400528281AD
:1022D00004E082894DF6FF731A4082817047F0B5A1
:1022E0000346002400260025002040F66A17B94264
:1022F00000D100BF1846C1F3421401F01F060127A8
:1023000007FA06F5012C01D10C3004E0022C01D1B2
:10231000103000E014301AB107682F43076002E064
:102320000768AF430760F0BD1AB1838A0B4383820D
:1023300002E0838A8B4383827047028A4FF6F073F0
:102340001A400282028A0A430282704782894FF24F
:10235000FF731A40828182890A438281704721B1CA
:10236000828942F00202828104E082894FF6FD7385
:102370001A4082817047028A4FF6DF731A40028248
:10238000028A0A430282704721B1028A42F48042E3
:10239000028204E0028A4BF6FF731A400282704701
:1023A000C1F308028280704701468888C0F30800A4
:1023B0007047818941F0010181817047028BD2B25F
:1023C0000283028B42EA012202837047028B02F4ED
:1023D0007F420283028B0A430283704721B1828AC3
:1023E00042F02002828204E0828A4FF6DF731A40B4
:1023F0008282704721B1828A42F01002828204E018
:10240000828A4FF6EF731A408282704721B1828A26
:1024100042F00802828204E0828A4FF6F7731A4083
:102420008282704721B1828942F40042828103E0B6
:102430008289C2F30E028281704721B1828A42F4FE
:102440000062828204E0828A4FF2FF731A40828225
:102450007047828A4FF6FB731A408282828A0A434F
:102460008282704721B1828A42F00202828204E0B5
:10247000828A4FF6FD731A4082827047024600201E
:10248000B1F5007F00D100BF13880B400BB10120D4
:1024900000E00020704701F40072B2F5007F00D127
:1024A00000BFCA430280704770B502460024002373
:1024B0000025002040F66A16B14200D100BFC1F3EA
:1024C000421501F01F03012606FA03F3012D02D184
:1024D0009689334006E0022D02D1168A334001E08E
:1024E000968A33400C12012606FA04F4168834400A
:1024F00013B10CB1012000E0002070BD10B5002226
:10250000002340F66A14A14200D100BF0A12012440
:102510009440A3B2DC43048010BD000000380140A9
:102520000044004000480040004C00400050004083
:1025300031490143314A1160704770B500210023D1
:102540000F22C47804B32D4C246804F4E064C4F56D
:10255000E064210AC1F10403CA40447804FA03F19B
:102560008478144021430901254C0678A15504784C
:1025700004F01F050124AC4005786D11AD0005F194
:10258000E025C5F8004109E0047804F01F050124A6
:10259000AC401C4D0678761145F8264070BD1A4AAD
:1025A0000A400243154B1B1F1A60704739B1134A8A
:1025B000121D12680243114B1B1D1A6006E00F4AE0
:1025C000121D126882430D4B1B1D1A6070470428B0
:1025D00008D14FF0E021096941F004014FF0E022F9
:1025E000116107E04FF0E021096921F004014FF08B
:1025F000E0221161704700000000FA050CED00E0D8
:1026000000E400E080E100E080FFFF1F10B5044619
:10261000FE48844208D10121C014FFF73BFD002190
:10262000E014FFF737FDC4E0B4F1804F08D1012179
:102630000846FFF73CFD00210120FFF738FDB8E018
:10264000F348844208D101210220FFF730FD002128
:102650000220FFF72CFDACE0EE48844208D10121B6
:102660000420FFF724FD00210420FFF720FDA0E057
:10267000E948844208D101210820FFF718FD002114
:102680000820FFF714FD94E0E448844208D10121BA
:102690001020FFF70CFD00211020FFF708FD88E057
:1026A000DF48844208D101212020FFF700FD0021EE
:1026B0002020FFF7FCFC7CE0DA48844208D10121AD
:1026C0004014FFF7E7FC00216014FFF7E3FC70E023
:1026D000D548844209D10121C804FFF7DBFC002161
:1026E0004FF40020FFF7D6FC63E0D048844209D1C4
:1026F00001210805FFF7CEFC00214FF48010FFF701
:10270000C9FC56E0CA48844209D101214805FFF7B7
:10271000C1FC00214FF40010FFF7BCFC49E0C548A4
:10272000844208D101214020FFF7C1FC0021402054
:10273000FFF7BDFC3DE0C048844208D10121802064
:10274000FFF7B5FC00218020FFF7B1FC31E0BB486A
:10275000844208D101218015FFF7A9FC0021A015B2
:10276000FFF7A5FC25E0B648844209D10121080401
:10277000FFF790FC00214FF48030FFF78BFC18E04E
:10278000B048844209D101214804FFF783FC0021AD
:102790004FF40030FFF77EFC0BE0AB48844208D1D9
:1027A00001218804FFF776FC00214FF48020FFF719
:1027B00071FC10BD00220288944B98420ED0994BB8
:1027C00098420BD0B0F1804F08D0914B984205D081
:1027D000904B984202D0904B984204D14FF68F73A1
:1027E0001A404B881A438D4B984207D08C4B984225
:1027F00004D04FF6FF431A40CB881A4302808B88DF
:1028000083850B880385814B98420BD0854B98427A
:1028100008D08B4B984205D08A4B984202D08A4B05
:10282000984201D10B7A038601238382704770B5E9
:10283000002400220023058C4FF6FE7635400584E7
:10284000028C8388048B4FF68F752C40B51E2C406C
:102850000D882C43751E2A400D892A434D882A4332
:102860006A4DA8420BD06F4DA84208D0744DA842C3
:1028700005D0744DA84202D0734DA84213D14FF633
:10288000F7752A404D892A434FF6FB752A408D88FB
:102890002A434FF6FF652B404FF6FF552B408D899D
:1028A0002B43CD892B4383800483CD888586028486
:1028B00070BD70B5002400220023058C4FF6EF7622
:1028C00035400584028C8388048B48F6FF752C40C4
:1028D0004FF6FF452C400D884FF6FF7606EA05259A
:1028E0002C434FF6DF752A400D8906EA05152A4369
:1028F0004D8806EA05152A43444DA84202D0494DA9
:10290000A8421DD14FF67F752A404D894FF6FF76BC
:1029100006EA05152A434FF6BF752A408D8806EA58
:1029200005152A434FF6FF352B404FF2FF752B401C
:102930008D8906EA85052B43CD8906EA85052B435B
:1029400083800483CD880587028470BD70B5002420
:1029500000220023058C4FF6FF6635400584028C6B
:102960008388848B4FF68F752C404FF6FC752C4076
:102970000D882C434FF6FF552A400D894FF6FF7600
:1029800006EA05252A434D8806EA05252A431F4DF8
:10299000A84202D0234DA8421DD14FF2FF752A4014
:1029A0004D894FF6FF7606EA05252A434FF6FF3597
:1029B0002A408D8806EA05252A434EF6FF752B40EE
:1029C0004DF6FF752B408D8906EA05152B43CD8901
:1029D00006EA05152B4383808483CD88858702848E
:1029E00070BD70B5002200230024058C4EF6FF76E2
:1029F00035400584038C8488828B48F6FF752A4015
:102A00004FF6FF452A400D8820E00000002C0140D1
:102A10000004004000080040000C0040001000408E
:102A20000014004000340140004C014000500140BF
:102A30000054014000180040001C004000200040ED
:102A40000040014000440140004801404FF6FF763D
:102A500006EA05252A434DF6FF752B400D8906EA47
:102A600005352B434D8806EA05352B43FA4DA84220
:102A700002D0FA4DA84208D14BF6FF752C408D8943
:102A80004FF6FF7606EA85152C4384808283CD8835
:102A9000A0F84050038470BD828B4FF2FF331A4080
:102AA0008283828B4FF6FF7303EA01231A438283EA
:102AB0007047F0B50C461546002200210026078C11
:102AC0004EF6FF7C07EA0C070784828B018C4FF6D9
:102AD000FF7707EA043640F6FF473A404FF6FF77A4
:102AE00007EA05273A434FF6FF7707EA03373A43E9
:102AF000D94FB8420ED0D94FB8420BD0B0F1804F69
:102B000008D0D74FB84205D0D64FB84202D0D64FE2
:102B1000B84206D14DF6FF77394046F48057394325
:102B200005E047F6FF57394044F480573943828324
:102B30000184F0BD828B4FF6F3731A408283828B3F
:102B40000A4382837047F0B50C46154600220021E7
:102B50000026078C4FF6FF6C07EA0C070784828B70
:102B6000018C4FF6FF7707EA04264FF60C773A40C0
:102B70004FF6FF7707EA03172F433A43B64FB842A1
:102B80000ED0B64FB8420BD0B0F1804F08D0B44F42
:102B9000B84205D0B34FB84202D0B34FB84206D1C5
:102BA0004FF6FF57394046F48077394305E04FF23E
:102BB000FF57394044F48077394382830184F0BD64
:102BC000028B4FF2FF331A400283028B4FF6FF73E2
:102BD00003EA01231A4302837047F0B50C461546F9
:102BE000002200210026078C4FF6EF7C07EA0C0735
:102BF0000784028B018C4FF6FF7707EA041640F634
:102C0000FF473A404FF6FF7707EA03373A434FF65C
:102C1000FF7707EA05273A438F4FB8420ED08F4F10
:102C2000B8420BD0B0F1804F08D08D4FB84205D0DC
:102C30008C4FB84202D08C4FB84206D14FF6DF77A6
:102C4000394046F01007394305E04FF65F773940C9
:102C500044F01007394302830184F0BD028B4FF624
:102C6000F3731A400283028B0A4302837047F0B564
:102C70000C46154600220021068C4FF6FE773E409A
:102C80000684028B018C4FF60C7632407E1C06EADD
:102C900003162E433243704EB0420ED06F4EB042F8
:102CA0000BD0B0F1804F08D06D4EB04205D06D4EC4
:102CB000B04202D06C4EB04206D14FF6FD763140A4
:102CC00044F00106314305E04FF6F576314044F01B
:102CD0000106314302830184F0BD70B505460C4600
:102CE0005D4885420ED05D4885420BD0B5F1804FDE
:102CF00008D05B48854205D05A48854202D05A48E0
:102D0000854200D100E000BF208850B92389A28805
:102D100061882846FFF7ABFFE1882846FFF79EFF52
:102D200025E0208804280AD12389A28861882846C2
:102D3000FFF753FFE1882846FFF742FF17E020889E
:102D400008280AD12389A28861882846FFF7FBFE5C
:102D5000E1882846FFF7EEFE09E02389A288618812
:102D60002846FFF7A6FEE1882846FFF795FE70BDCE
:102D70002DE9F04105460C4600260127608808B978
:102D8000022600E00026A088012801D1022700E0E9
:102D900001272088A0B92389A28861882846FFF7E7
:102DA00066FFE1882846FFF759FF23893A463146F6
:102DB0002846FFF712FFE1882846FFF701FF13E0DE
:102DC0002389A28861882846FFF707FFE188284603
:102DD000FFF7F6FE23893A4631462846FFF747FFBC
:102DE000E1882846FFF73AFFBDE8F0810A884B8862
:102DF0001A438B881A43CB881A430B891A434B8991
:102E00001A438B891A43A0F8442070474FF6FF718C
:102E1000818000210180C1804180017270470021C2
:102E2000018041808180C180018141818181C18196
:102E30007047002101804180012181800021C180F3
:102E4000018170470021018041808180C180018122
:102E50004181818170470000002C01400034014015
:102E60000004004000080040000C004021B102882E
:102E700042F00102028004E002884FF6FE731A401D
:102E80000280704731B1B0F8442042F40042A0F80B
:102E9000442005E0B0F84420C2F30E02A0F844201C
:102EA00070471AB183890B43838102E083898B4386
:102EB000838170478182704741EA0203A0F848305D
:102EC00070471AB183890B43838102E083898B4366
:102ED0008381704701894FF6F87211400181704774
:102EE0000A46002101894FF68F7319401143018171
:102EF000704730B504460D4629462046FFF7F0FFDF
:102F0000208940F00700208130BD2DE9F0410446C2
:102F10000D4616461F46602D06D13B46012231461E
:102F20002046FFF75AFE05E03B4601223146204687
:102F3000FFF79DFE29462046FFF7D2FF208940F08B
:102F400007002081BDE8F08130B50C4600210189E1
:102F5000C9B24FF6FF7505EA0325154325432943FA
:102F6000018130BD2DE9F04105460E4617469846D1
:102F7000002443463A4631462846FFF7E5FF2C89B0
:102F80004FF6F870044044F007044FF68F70044089
:102F900044F070042C81BDE8F081F0B504460D4684
:102FA00016461F463B46324629462046FFF7CCFFD1
:102FB000208940F480402081F0BD018582827047E5
:102FC0000A46002101884FF68F7319401143018092
:102FD0007047F0B50C4615461E460021002200231E
:102FE0000189028B038C4FF6F877394021434FF665
:102FF000FC473A4040F201173A434FF6DD773B4039
:103000004FF6FF7707EA06172F433B430181028300
:103010000384F0BD0A460021018B4FF68F731940DF
:103020001143018370470A460021018B48F6FF7364
:1030300019404FF6FF7303EA0223194301837047D7
:103040000A460021818B4FF68F731940114381830B
:1030500070470A460021818B48F6FF7319404FF6EE
:10306000FF7303EA022319438183704721B1028869
:1030700042F08002028004E002884FF67F731A401B
:103080000280704721B1828842F00402828004E00D
:1030900082884FF6FB731A408280704721B1828884
:1030A00042F00802828004E082884FF6F7731A40EB
:1030B0008280704721B1828842F00102828004E060
:1030C00082884FF6FE731A40828070470A460021BC
:1030D000018B4FF6F77319401143018370470A467D
:1030E0000021018B4FF2FF7319404FF6FF7303EA83
:1030F00002231943018370470A460021818B4FF652
:10310000F77319401143818370470A460021818B70
:103110004FF2FF7319404FF6FF7303EA022319437E
:10312000818370470A460021018B4FF6FB731940DB
:103130001143018370470A460021018B4FF6FF338C
:1031400019404FF6FF7303EA0223194301837047C6
:103150000A460021818B4FF6FB731940114381838E
:1031600070470A460021818B4FF6FF3319404FF616
:10317000FF7303EA02231943818370470A46002143
:10318000018B4FF67F7319401143018370470A4644
:103190000021018BC1F30E014FF6FF7303EA0223F6
:1031A0001943018370470A460021818B4FF67F73D4
:1031B00019401143818370470A460021818BC1F376
:1031C0000E014FF6FF7303EA022319438183704710
:1031D0000A460021018C4FF6FD731940114301840A
:1031E00070470A460021018C4FF6F77319401143CE
:1031F000018470470A460021018C4FF6DF731940A5
:103200004FF6FF7303EA02131943018470470A461D
:103210000021018C4FF67F7319404FF6FF7303EACC
:1032200002131943018470470A460021018C4FF6AE
:10323000FF5319404FF6FF7303EA02231943018439
:1032400070470A460021018C4FF2FF7319404FF678
:10325000FF7303EA02231943018470470A460021E1
:10326000018C4DF6FF7319404FF6FF7303EA0233EA
:1032700019430184704730B5002301248C40A3B268
:10328000048C9C430484048C02FA01F5ADB22C43F7
:10329000048430BD30B5002304248C40A3B2048CD8
:1032A0009C430484048C02FA01F5ADB22C430484DF
:1032B00030BD70B5034600200024184618300125A3
:1032C0008D40ACB21D8CA5431D8409B1082909D1DC
:1032D00000EB6100056825F0700505600568154381
:1032E00005600EE00D1FC5F34E052844056825F462
:1032F000E045056005684FF6FF7606EA022635438D
:10330000056070BD21B1028842F00202028004E033
:1033100002884FF6FD731A400280704721B102887F
:1033200042F00402028004E002884FF6FB731A4068
:103330000280704721B1828842F08002828004E0DE
:1033400082884FF67F731A408280704702884FF65A
:10335000F7731A40028002880A430280704782880D
:103360004FF68F731A40828082880A4382807047AA
:1033700002894FF6F8731A40028102890A430281DA
:10338000704702894FF67F731A40028102890A430F
:1033900002817047818470478185704781867047BC
:1033A0000187704781877047A0F8401070470288F6
:1033B0004FF6FF431A40028002880A43028070479A
:1033C0000146888E70470146088F70470146888FF6
:1033D00070470146B1F8400070470146888C70473D
:1033E0000146088D704702460020138A0B400BB13E
:1033F000012000E000207047CA430282704730B5C8
:103400000246002000230024158A05EA010395895D
:1034100005EA010413B10CB1012000E0002030BD29
:10342000CA4302827047000070B503460C4603E0B1
:1034300014F8015B03F8015B1500A2F10102F7D15A
:1034400070BD30B5034601E003F8011B1400A2F182
:103450000102F9D130BD00B55A494FF40C62C86879
:103460000021FFF7EEFF57494FF40C428868002116
:10347000FFF7E7FF01205349087400BD0022002137
:1034800006E05048C06830F8110000B1521C491CD9
:10349000B1F58C6FF5D3642050434FF48C63B0FBCF
:1034A000F3F0C0B270472DE9F04106460024A04673
:1034B0004448007C10B94349086880471EB94FF062
:1034C000FF30BDE8F081C6F34F1506F01F0008B1CC
:1034D000681C85B240F25F441AE03A48C06830F890
:1034E000140020B908F101001FFA80F801E04FF044
:1034F0000008A8450BD1002705E03248C068E11953
:1035000020F811507F1CAF42F7D36001D9E7641E49
:10351000002CE2DA4FF0FF30D3E770B505462948BA
:10352000007C20B9274908688047012070BDB5F5A7
:103530000C4F11D269092348C06830F811200024CB
:1035400006E000201F4BDB680E1923F81600641CF0
:103550009442F6DB0020E9E70220E7E770B5044675
:1035600004B970BD17488068251A2846FFF7D5FFB3
:1035700000BFF6E770B505462846FFF794FF0446FE
:10358000601C08B9002070BD0E4880682044FAE72E
:1035900070B506460C462046FFF785FF0546681CB9
:1035A00008B9002070BD074989684819224631468C
:1035B000FFF73AFF3046FFF7D1FF02488068284402
:1035C000F0E700003C000020D2B201E000F8012B3F
:1035D000491EFBD270470022F6E710B513460A4693
:1035E00004461946FFF7F0FF204610BD30B50546EA
:1035F0002A460B4612F8010B13F8014B08B1A04202
:10360000F8D01CB1002802D06D1CF1E7284630BD6F
:1036100070B50F4D00B92868002412E00A4602E098
:103620009E4203D0521C1378002BF9D1DAB2224308
:1036300005D02BB124B1002100F8011B04E00446A1
:10364000401C0678002EE9D12860204670BD00009D
:10365000500000200FB400B589B00BA800906A4656
:1036600003480A9900F08AF809B05DF814FB0000DD
:10367000540000202DE9FF5FD2E901A74FF00008B8
:10368000916999461446DDF838B046460198884756
:10369000054659EA0B0005D009E0A169761C01989E
:1036A00088470546216A284688470028F5D1681CC6
:1036B00003D05FEACA7005D015E04FF0FF3004B0C8
:1036C000BDE8F09F2068011D2160D0F800800AE06D
:1036D0005FEACA7001D108F8015BA169761C7F1E00
:1036E000019888470546002F1ADD681C18D0B9F1EB
:1036F000000F0DD0E81705EBD060421120F01F003D
:1037000059F822102A1A012090400142E0D107E026
:10371000BBF1000FDCD1216A284688470028D7D0AA
:10372000E169019888470AF0010050EA0B0002D1D4
:10373000002188F80010A068B84203DDBBF1000F3B
:1037400003D017B16FF00100B9E73046B7E730B5E5
:103750000B46014600202022012409E021FA02F54F
:103760009D4205D303FA02F5491B04FA02F52844E9
:10377000151EA2F10102F1DC30BD0000024B936185
:10378000024BD36100F032B8B5370008D1370008DA
:10379000064C074D06E0E06840F0010394E807009E
:1037A00098471034AC42F6D3FCF7C6FC343E000810
:1037B000543E0008094910B508784C1C18B1401E49
:1037C0000870205C10BD00210720ABBE207010BD2A
:1037D00002490878421C0A70704700005800002017
:1037E000026811441378016018467047D16004499B
:1037F00051610449116200211161114600F00AB8BB
:10380000E137000809380008C0B24FF4F05100F069
:1038100095B900002DE9F34F8BB04FF0000801F18E
:103820000C000C464FF0010B46460DF1080A0190C2
:10383000626901210198904705002DD0252D2CD0DB
:10384000216A8847C0B16269012101989047216AC5
:1038500088470028F7D1411E62690198904700E02F
:10386000761CA1690B988847216A88470028F7D100
:10387000E1690B988847DBE7A1690B988847074601
:10388000A84201D1761CD3E7E1690B9888477F1CD9
:1038900002D1B8F1000F6FD043E1002762693D46C5
:1038A0003946019890472A2804D16269012101987C
:1038B00090470125DFF880926269012101989047C5
:1038C000A0F130010A290AD24F45E5DC07EB870158
:1038D00000EB4107303FDFD445F01005ECE7E90687
:1038E00001D46FF000476C280AD04C2814D0682807
:1038F00015D06A280DD074281CD07A281AD01DE063
:1039000062690121019890476C2802D045F00405B6
:1039100014E045F002050DE045F020050AE062697B
:10392000012101989047682802D045F0080505E07C
:1039300045F400656269012101989047C4E9015787
:1039400065283DD019DC582877D00CDC452837D0C5
:1039500004DC252826D0412831D131E046282FD05B
:1039600047282CD12CE05B287DD0612828D0632803
:1039700079D0642823D157E0CDE06F2845D008DC0A
:1039800066281DD067281BD0692821D06E2816D143
:1039900027E0702842D0732865D0752844D0782855
:1039A0000DD14AE0A1690B988847054625283FF4C8
:1039B00069AFE1690B9888476D1C3FF46AAFB0E0CE
:1039C00023466A466FF001000B99AFF300809BE03D
:1039D00045F040006060A80723464FF0000233D452
:1039E0003BE02068011D21600068290501D50670B3
:1039F0001EE7290701D506801AE7A90703D5F117A5
:103A0000C0E9006114E7066012E745F0400060601D
:103A1000A80723464FF0080216D41EE040F60E0118
:103A200025EA0100606016E045F040006060A807EC
:103A300023464FF00A0207D40FE045F040006060D3
:103A4000A80708D5234610226FF001000B99AFF3A9
:103A5000008059E007E0234610226FF001000B9927
:103A6000AFF3008050E04FF000094F464B4663280B
:103A700002D05B2806D040E0E80601D40120A06017
:103A800001273AE062690121019890475E2805D13B
:103A90004FF001096269494601989047216939B997
:103AA00000210B46524642F82130491C0829FADB16
:103AB000B0B3216969B9C11700EBD1614B110AEBB1
:103AC000830221F01F01411A01201368884003433B
:103AD000136062690121019890475D28E8D1B9F12E
:103AE000000F09D00020514651F82020D24341F860
:103AF0002020401C0828F7DB02AB224600976FF01D
:103B000001000B99FFF7B6FD00280CDA401C08D124
:103B1000BBF1000F05D04FF0FF300DB0BDE8F08FC6
:103B2000FFE74046F9E7E90701D108F1010806443B
:103B30004FF0000B7CE60000CCCCCC0C7F2801D9E8
:103B4000002208E0064A02EB5002C007127800D1BA
:103B5000120902F00F020120904008407047000057
:103B60008E3D00080FB4054B10B503A9044A029816
:103B700000F02CF810BC5DF814FB0000631700087F
:103B8000200000200FB4084B10B504A902AA039826
:103B900000F01CF8044602A9002000F0F3F82046CB
:103BA00010BC5DF814FB0000853D000802E008C869
:103BB000121F08C1002AFAD170477047002001E0A7
:103BC00001C1121F002AFBD1704700002DE9FF4FF1
:103BD0008BB09A460F460546002606E025280BD0F6
:103BE00052460D9990476D1C761C28780028F5D117
:103BF0000FB03046BDE8F08F0024A0460122604996
:103C000000E0044315F8013F203B02FA03F00842AC
:103C1000F7D128782E2817D115F8010F44F00404A5
:103C20002A280ED06FF02F022878A0F13001092940
:103C30000AD808EB880102EB410100EB01086D1C7A
:103C4000F2E757F8048B6D1C287869283ED006DC13
:103C50000028CDD063280BD0642804D136E0732827
:103C600010D075284BD052460D999047761C85E0B0
:103C700017F8040B8DF8000000208DF80100E946CC
:103C8000012003E057F8049B4FF0FF3061074FF02D
:103C9000000401D40AE0641C44450DDA8442FADBD6
:103CA00019F804100029F6D106E0641C8442FCDBFC
:103CB00019F804100029F8D1264404E019F8010B82
:103CC00052460D999047641EF8D257E001CF4FF04D
:103CD0000A0B002802DA40422D2102E0210504D51A
:103CE0002B218DF82410012103E0E10705D02021CC
:103CF000F7E70DF1200908910CE00021F9E701CF69
:103D00004FF00A0BF9E75946FFF721FD01F13002A8
:103D100009F8012D0028F6D1ADEB090000F1200BC8
:103D2000600701D44FF00108D84502DDA8EB0B0075
:103D300000E000208046002406E009A85246005D0D
:103D40000D999047641C761C08988442F5DB04E0CA
:103D5000302052460D999047761CB8F10001A8F129
:103D60000108F5DC05E019F8010B52460D99904762
:103D7000761CBBF10001ABF1010BF4DC6D1C34E7E8
:103D8000092801000A68531C0B6010707047DDDDC4
:103D9000DDDDDCBBBBDDDDDDDDDDDDDDDDDD988832
:103DA000888888888888777777777788888885551E
:103DB0005556666666666666666666688888833394
:103DC000333222222222222222222228888D00001F
:103DD0000D0AC7EBCAE4C8EBC4DCC1ACBDD3B5BDAA
:103DE000496E7465726E6574B5C457694669C3FBE4
:103DF000B3C6BACDC3DCD4BFA3ACCAE4C8EBB8F138
:103E0000CABDCEAAA3BAC3FBB3C6D7D6B7FB2BD3C2
:103E1000A2CEC4B6BABAC52BC3DCD4BFD7D6B7FBC3
:103E20002BBFD5B8F1A3ACB5E3BBF7B7A2CBCD0D93
:103E30000A000000543E0008000000205C00000062
:103E4000AC3B0008B03E00085C0000208CA10000E4
:103E5000BC3B000800A24A04000000000000000073
:103E6000010203040607080900000000000000002A
:103E7000000000000000000000000000000001023F
:103E800003040102030406070809020406080000EF
:103E9000573400087D3400082809002028950020A8
:103EA0000000000000000000000000000000000012
:0400000508000131BD
:00000001FF
